{"abi":[{"type":"function","name":"bookLab","inputs":[{"name":"lKey","type":"bytes32","internalType":"bytes32"},{"name":"params","type":"tuple","internalType":"struct BookLabParams","components":[{"name":"slotStart","type":"int256","internalType":"int256"},{"name":"slotEnd","type":"int256","internalType":"int256"},{"name":"costUsdc","type":"uint256","internalType":"uint256"},{"name":"feeSynapse","type":"uint256","internalType":"uint256"},{"name":"hypothesis","type":"bytes32","internalType":"bytes32"}]}],"outputs":[],"stateMutability":"nonpayable"},{"type":"function","name":"bookingKey","inputs":[{"name":"_labKey","type":"bytes32","internalType":"bytes32"},{"name":"slotStart","type":"int256","internalType":"int256"}],"outputs":[{"name":"","type":"bytes32","internalType":"bytes32"}],"stateMutability":"pure"},{"type":"function","name":"bookings","inputs":[{"name":"","type":"bytes32","internalType":"bytes32"}],"outputs":[{"name":"labKey","type":"bytes32","internalType":"bytes32"},{"name":"callerWallet","type":"address","internalType":"address"},{"name":"slotStart","type":"int256","internalType":"int256"},{"name":"slotEnd","type":"int256","internalType":"int256"},{"name":"costUsdc","type":"uint256","internalType":"uint256"},{"name":"feeSynapseBurned","type":"uint256","internalType":"uint256"},{"name":"status","type":"uint8","internalType":"uint8"},{"name":"hypothesis","type":"bytes32","internalType":"bytes32"},{"name":"resultHash","type":"bytes32","internalType":"bytes32"},{"name":"createdAt","type":"uint256","internalType":"uint256"}],"stateMutability":"view"},{"type":"function","name":"campaignEscrow","inputs":[{"name":"","type":"bytes32","internalType":"bytes32"}],"outputs":[{"name":"","type":"uint256","internalType":"uint256"}],"stateMutability":"view"},{"type":"function","name":"campaignKey","inputs":[{"name":"lead","type":"address","internalType":"address"},{"name":"campaignId","type":"bytes16","internalType":"bytes16"}],"outputs":[{"name":"","type":"bytes32","internalType":"bytes32"}],"stateMutability":"pure"},{"type":"function","name":"cancelBooking","inputs":[{"name":"bKey","type":"bytes32","internalType":"bytes32"}],"outputs":[],"stateMutability":"nonpayable"},{"type":"function","name":"commitHypothesis","inputs":[{"name":"params","type":"tuple","internalType":"struct CommitHypothesisParams","components":[{"name":"shortId","type":"bytes8","internalType":"bytes8"},{"name":"domain","type":"uint8","internalType":"uint8"},{"name":"gradeTarget","type":"uint8","internalType":"uint8"},{"name":"saltedHash","type":"bytes32","internalType":"bytes32"}]}],"outputs":[],"stateMutability":"nonpayable"},{"type":"function","name":"config","inputs":[],"outputs":[{"name":"authority","type":"address","internalType":"address"},{"name":"evidenceGrader","type":"address","internalType":"address"},{"name":"biosecurityAgent","type":"address","internalType":"address"},{"name":"treasuryWallet","type":"address","internalType":"address"},{"name":"synapseMint","type":"address","internalType":"address"},{"name":"usdcMint","type":"address","internalType":"address"},{"name":"minLabStake","type":"uint256","internalType":"uint256"}],"stateMutability":"view"},{"type":"function","name":"createCampaign","inputs":[{"name":"params","type":"tuple","internalType":"struct CreateCampaignParams","components":[{"name":"id","type":"bytes16","internalType":"bytes16"},{"name":"title","type":"string","internalType":"string"},{"name":"domain","type":"uint8","internalType":"uint8"},{"name":"targetUsdc","type":"uint256","internalType":"uint256"},{"name":"milestones","type":"tuple[]","internalType":"struct MilestoneInit[]","components":[{"name":"title","type":"string","internalType":"string"},{"name":"fundReleaseUsdc","type":"uint256","internalType":"uint256"},{"name":"requiredGrade","type":"uint8","internalType":"uint8"}]}]}],"outputs":[],"stateMutability":"nonpayable"},{"type":"function","name":"fundCampaign","inputs":[{"name":"cKey","type":"bytes32","internalType":"bytes32"},{"name":"amountUsdc","type":"uint256","internalType":"uint256"}],"outputs":[],"stateMutability":"nonpayable"},{"type":"function","name":"getBooking","inputs":[{"name":"key","type":"bytes32","internalType":"bytes32"}],"outputs":[{"name":"","type":"tuple","internalType":"struct BookingRecord","components":[{"name":"labKey","type":"bytes32","internalType":"bytes32"},{"name":"callerWallet","type":"address","internalType":"address"},{"name":"slotStart","type":"int256","internalType":"int256"},{"name":"slotEnd","type":"int256","internalType":"int256"},{"name":"costUsdc","type":"uint256","internalType":"uint256"},{"name":"feeSynapseBurned","type":"uint256","internalType":"uint256"},{"name":"status","type":"uint8","internalType":"uint8"},{"name":"hypothesis","type":"bytes32","internalType":"bytes32"},{"name":"resultHash","type":"bytes32","internalType":"bytes32"},{"name":"createdAt","type":"uint256","internalType":"uint256"}]}],"stateMutability":"view"},{"type":"function","name":"getCampaign","inputs":[{"name":"key","type":"bytes32","internalType":"bytes32"}],"outputs":[{"name":"","type":"tuple","internalType":"struct CampaignRecord","components":[{"name":"id","type":"bytes16","internalType":"bytes16"},{"name":"title","type":"string","internalType":"string"},{"name":"domain","type":"uint8","internalType":"uint8"},{"name":"leadWallet","type":"address","internalType":"address"},{"name":"targetUsdc","type":"uint256","internalType":"uint256"},{"name":"raisedUsdc","type":"uint256","internalType":"uint256"},{"name":"status","type":"uint8","internalType":"uint8"},{"name":"milestones","type":"tuple[]","internalType":"struct MilestoneData[]","components":[{"name":"title","type":"string","internalType":"string"},{"name":"fundReleaseUsdc","type":"uint256","internalType":"uint256"},{"name":"requiredGrade","type":"uint8","internalType":"uint8"},{"name":"status","type":"uint8","internalType":"uint8"},{"name":"verifiedAt","type":"uint256","internalType":"uint256"},{"name":"evidenceSig","type":"bytes","internalType":"bytes"}]},{"name":"createdAt","type":"uint256","internalType":"uint256"}]}],"stateMutability":"view"},{"type":"function","name":"getHypothesis","inputs":[{"name":"key","type":"bytes32","internalType":"bytes32"}],"outputs":[{"name":"","type":"tuple","internalType":"struct HypothesisRecord","components":[{"name":"author","type":"address","internalType":"address"},{"name":"shortId","type":"bytes8","internalType":"bytes8"},{"name":"domain","type":"uint8","internalType":"uint8"},{"name":"gradeTarget","type":"uint8","internalType":"uint8"},{"name":"gradeActual","type":"uint8","internalType":"uint8"},{"name":"saltedHash","type":"bytes32","internalType":"bytes32"},{"name":"status","type":"uint8","internalType":"uint8"},{"name":"onChainBlock","type":"uint256","internalType":"uint256"},{"name":"revealedAt","type":"uint256","internalType":"uint256"},{"name":"popsClearance","type":"uint8","internalType":"uint8"},{"name":"burnAmount","type":"uint256","internalType":"uint256"},{"name":"createdAt","type":"uint256","internalType":"uint256"}]}],"stateMutability":"view"},{"type":"function","name":"getIpnft","inputs":[{"name":"key","type":"bytes32","internalType":"bytes32"}],"outputs":[{"name":"","type":"tuple","internalType":"struct IpnftRecord","components":[{"name":"mintAddress","type":"address","internalType":"address"},{"name":"hypothesis","type":"bytes32","internalType":"bytes32"},{"name":"owner","type":"address","internalType":"address"},{"name":"title","type":"string","internalType":"string"},{"name":"domain","type":"uint8","internalType":"uint8"},{"name":"gradeAtMint","type":"uint8","internalType":"uint8"},{"name":"commitHash","type":"bytes32","internalType":"bytes32"},{"name":"royaltyBps","type":"uint16","internalType":"uint16"},{"name":"metadataUri","type":"string","internalType":"string"},{"name":"burnAmount","type":"uint256","internalType":"uint256"},{"name":"createdAt","type":"uint256","internalType":"uint256"}]}],"stateMutability":"view"},{"type":"function","name":"getLab","inputs":[{"name":"key","type":"bytes32","internalType":"bytes32"}],"outputs":[{"name":"","type":"tuple","internalType":"struct LabRecord","components":[{"name":"name","type":"string","internalType":"string"},{"name":"country","type":"bytes4","internalType":"bytes4"},{"name":"kind","type":"uint8","internalType":"uint8"},{"name":"operatorWallet","type":"address","internalType":"address"},{"name":"stakedSynapse","type":"uint256","internalType":"uint256"},{"name":"completedExperiments","type":"uint256","internalType":"uint256"},{"name":"status","type":"uint8","internalType":"uint8"},{"name":"nftMintAddress","type":"address","internalType":"address"},{"name":"labId","type":"bytes8","internalType":"bytes8"},{"name":"createdAt","type":"uint256","internalType":"uint256"}]}],"stateMutability":"view"},{"type":"function","name":"getStakeRecord","inputs":[{"name":"who","type":"address","internalType":"address"}],"outputs":[{"name":"","type":"tuple","internalType":"struct StakeRecord","components":[{"name":"operator","type":"address","internalType":"address"},{"name":"stakedAmount","type":"uint256","internalType":"uint256"},{"name":"lastUnstakeRequest","type":"uint256","internalType":"uint256"},{"name":"unstakeRequestAmount","type":"uint256","internalType":"uint256"},{"name":"slashCount","type":"uint256","internalType":"uint256"},{"name":"createdAt","type":"uint256","internalType":"uint256"}]}],"stateMutability":"view"},{"type":"function","name":"hypotheses","inputs":[{"name":"","type":"bytes32","internalType":"bytes32"}],"outputs":[{"name":"author","type":"address","internalType":"address"},{"name":"shortId","type":"bytes8","internalType":"bytes8"},{"name":"domain","type":"uint8","internalType":"uint8"},{"name":"gradeTarget","type":"uint8","internalType":"uint8"},{"name":"gradeActual","type":"uint8","internalType":"uint8"},{"name":"saltedHash","type":"bytes32","internalType":"bytes32"},{"name":"status","type":"uint8","internalType":"uint8"},{"name":"onChainBlock","type":"uint256","internalType":"uint256"},{"name":"revealedAt","type":"uint256","internalType":"uint256"},{"name":"popsClearance","type":"uint8","internalType":"uint8"},{"name":"burnAmount","type":"uint256","internalType":"uint256"},{"name":"createdAt","type":"uint256","internalType":"uint256"}],"stateMutability":"view"},{"type":"function","name":"hypothesisKey","inputs":[{"name":"author","type":"address","internalType":"address"},{"name":"shortId","type":"bytes8","internalType":"bytes8"}],"outputs":[{"name":"","type":"bytes32","internalType":"bytes32"}],"stateMutability":"pure"},{"type":"function","name":"initializeProtocol","inputs":[{"name":"params","type":"tuple","internalType":"struct InitializeProtocolParams","components":[{"name":"evidenceGrader","type":"address","internalType":"address"},{"name":"biosecurityAgent","type":"address","internalType":"address"},{"name":"treasuryWallet","type":"address","internalType":"address"},{"name":"synapseMint","type":"address","internalType":"address"},{"name":"usdcMint","type":"address","internalType":"address"},{"name":"minLabStake","type":"uint256","internalType":"uint256"}]}],"outputs":[],"stateMutability":"nonpayable"},{"type":"function","name":"initialized","inputs":[],"outputs":[{"name":"","type":"bool","internalType":"bool"}],"stateMutability":"view"},{"type":"function","name":"ipNftContract","inputs":[],"outputs":[{"name":"","type":"address","internalType":"contract SynapseIPNFT"}],"stateMutability":"view"},{"type":"function","name":"ipnfts","inputs":[{"name":"","type":"bytes32","internalType":"bytes32"}],"outputs":[{"name":"mintAddress","type":"address","internalType":"address"},{"name":"hypothesis","type":"bytes32","internalType":"bytes32"},{"name":"owner","type":"address","internalType":"address"},{"name":"title","type":"string","internalType":"string"},{"name":"domain","type":"uint8","internalType":"uint8"},{"name":"gradeAtMint","type":"uint8","internalType":"uint8"},{"name":"commitHash","type":"bytes32","internalType":"bytes32"},{"name":"royaltyBps","type":"uint16","internalType":"uint16"},{"name":"metadataUri","type":"string","internalType":"string"},{"name":"burnAmount","type":"uint256","internalType":"uint256"},{"name":"createdAt","type":"uint256","internalType":"uint256"}],"stateMutability":"view"},{"type":"function","name":"labKey","inputs":[{"name":"operator","type":"address","internalType":"address"},{"name":"_labId","type":"bytes8","internalType":"bytes8"}],"outputs":[{"name":"","type":"bytes32","internalType":"bytes32"}],"stateMutability":"pure"},{"type":"function","name":"labs","inputs":[{"name":"","type":"bytes32","internalType":"bytes32"}],"outputs":[{"name":"name","type":"string","internalType":"string"},{"name":"country","type":"bytes4","internalType":"bytes4"},{"name":"kind","type":"uint8","internalType":"uint8"},{"name":"operatorWallet","type":"address","internalType":"address"},{"name":"stakedSynapse","type":"uint256","internalType":"uint256"},{"name":"completedExperiments","type":"uint256","internalType":"uint256"},{"name":"status","type":"uint8","internalType":"uint8"},{"name":"nftMintAddress","type":"address","internalType":"address"},{"name":"labId","type":"bytes8","internalType":"bytes8"},{"name":"createdAt","type":"uint256","internalType":"uint256"}],"stateMutability":"view"},{"type":"function","name":"mintIpnft","inputs":[{"name":"hypKey","type":"bytes32","internalType":"bytes32"},{"name":"params","type":"tuple","internalType":"struct MintIpnftParams","components":[{"name":"title","type":"string","internalType":"string"},{"name":"royaltyBps","type":"uint16","internalType":"uint16"},{"name":"metadataUri","type":"string","internalType":"string"}]}],"outputs":[],"stateMutability":"nonpayable"},{"type":"function","name":"registerLab","inputs":[{"name":"params","type":"tuple","internalType":"struct RegisterLabParams","components":[{"name":"labId","type":"bytes8","internalType":"bytes8"},{"name":"name","type":"string","internalType":"string"},{"name":"country","type":"bytes4","internalType":"bytes4"},{"name":"kind","type":"uint8","internalType":"uint8"},{"name":"nftMintAddress","type":"address","internalType":"address"}]}],"outputs":[],"stateMutability":"nonpayable"},{"type":"function","name":"releaseMilestoneFunds","inputs":[{"name":"cKey","type":"bytes32","internalType":"bytes32"},{"name":"milestoneIndex","type":"uint8","internalType":"uint8"}],"outputs":[],"stateMutability":"nonpayable"},{"type":"function","name":"requestUnstake","inputs":[{"name":"amount","type":"uint256","internalType":"uint256"}],"outputs":[],"stateMutability":"nonpayable"},{"type":"function","name":"revealHypothesis","inputs":[{"name":"params","type":"tuple","internalType":"struct RevealHypothesisParams","components":[{"name":"shortId","type":"bytes8","internalType":"bytes8"},{"name":"salt","type":"bytes","internalType":"bytes"},{"name":"plaintext","type":"string","internalType":"string"}]}],"outputs":[],"stateMutability":"nonpayable"},{"type":"function","name":"routeDataQueryRevenue","inputs":[{"name":"contributor","type":"address","internalType":"address"},{"name":"totalAmount","type":"uint256","internalType":"uint256"}],"outputs":[],"stateMutability":"nonpayable"},{"type":"function","name":"routeInferenceRevenue","inputs":[{"name":"operator","type":"address","internalType":"address"},{"name":"totalAmount","type":"uint256","internalType":"uint256"}],"outputs":[],"stateMutability":"nonpayable"},{"type":"function","name":"setHypothesisGrade","inputs":[{"name":"hypKey","type":"bytes32","internalType":"bytes32"},{"name":"grade","type":"uint8","internalType":"uint8"}],"outputs":[],"stateMutability":"nonpayable"},{"type":"function","name":"setIpNftContract","inputs":[{"name":"_ipNft","type":"address","internalType":"address"}],"outputs":[],"stateMutability":"nonpayable"},{"type":"function","name":"setPopsClearance","inputs":[{"name":"hypKey","type":"bytes32","internalType":"bytes32"},{"name":"cleared","type":"bool","internalType":"bool"}],"outputs":[],"stateMutability":"nonpayable"},{"type":"function","name":"slashOperator","inputs":[{"name":"operator","type":"address","internalType":"address"},{"name":"amount","type":"uint256","internalType":"uint256"}],"outputs":[],"stateMutability":"nonpayable"},{"type":"function","name":"stakeRecords","inputs":[{"name":"","type":"address","internalType":"address"}],"outputs":[{"name":"operator","type":"address","internalType":"address"},{"name":"stakedAmount","type":"uint256","internalType":"uint256"},{"name":"lastUnstakeRequest","type":"uint256","internalType":"uint256"},{"name":"unstakeRequestAmount","type":"uint256","internalType":"uint256"},{"name":"slashCount","type":"uint256","internalType":"uint256"},{"name":"createdAt","type":"uint256","internalType":"uint256"}],"stateMutability":"view"},{"type":"function","name":"stakeSynapse","inputs":[{"name":"amount","type":"uint256","internalType":"uint256"}],"outputs":[],"stateMutability":"nonpayable"},{"type":"function","name":"submitExperimentResult","inputs":[{"name":"bKey","type":"bytes32","internalType":"bytes32"},{"name":"resultHash","type":"bytes32","internalType":"bytes32"}],"outputs":[],"stateMutability":"nonpayable"},{"type":"function","name":"totalStaked","inputs":[],"outputs":[{"name":"","type":"uint256","internalType":"uint256"}],"stateMutability":"view"},{"type":"function","name":"verifyMilestone","inputs":[{"name":"cKey","type":"bytes32","internalType":"bytes32"},{"name":"milestoneIndex","type":"uint8","internalType":"uint8"},{"name":"evidenceSig","type":"bytes","internalType":"bytes"}],"outputs":[],"stateMutability":"nonpayable"},{"type":"function","name":"withdrawUnstake","inputs":[],"outputs":[],"stateMutability":"nonpayable"},{"type":"event","name":"EvtBookingCancelled","inputs":[{"name":"bookingKey","type":"bytes32","indexed":true,"internalType":"bytes32"}],"anonymous":false},{"type":"event","name":"EvtCampaignCreated","inputs":[{"name":"campaignKey","type":"bytes32","indexed":true,"internalType":"bytes32"},{"name":"leadWallet","type":"address","indexed":true,"internalType":"address"},{"name":"targetUsdc","type":"uint256","indexed":false,"internalType":"uint256"},{"name":"domain","type":"uint8","indexed":false,"internalType":"uint8"}],"anonymous":false},{"type":"event","name":"EvtCampaignFunded","inputs":[{"name":"campaignKey","type":"bytes32","indexed":true,"internalType":"bytes32"},{"name":"funder","type":"address","indexed":true,"internalType":"address"},{"name":"amountUsdc","type":"uint256","indexed":false,"internalType":"uint256"},{"name":"totalRaised","type":"uint256","indexed":false,"internalType":"uint256"}],"anonymous":false},{"type":"event","name":"EvtDataQueryRevenueRouted","inputs":[{"name":"contributor","type":"address","indexed":true,"internalType":"address"},{"name":"contributorAmount","type":"uint256","indexed":false,"internalType":"uint256"},{"name":"treasuryAmount","type":"uint256","indexed":false,"internalType":"uint256"}],"anonymous":false},{"type":"event","name":"EvtExperimentResult","inputs":[{"name":"bookingKey","type":"bytes32","indexed":true,"internalType":"bytes32"},{"name":"labKey","type":"bytes32","indexed":true,"internalType":"bytes32"},{"name":"resultHash","type":"bytes32","indexed":false,"internalType":"bytes32"}],"anonymous":false},{"type":"event","name":"EvtHypothesisCommitted","inputs":[{"name":"hypothesisKey","type":"bytes32","indexed":true,"internalType":"bytes32"},{"name":"author","type":"address","indexed":true,"internalType":"address"},{"name":"domain","type":"uint8","indexed":false,"internalType":"uint8"},{"name":"gradeTarget","type":"uint8","indexed":false,"internalType":"uint8"},{"name":"saltedHash","type":"bytes32","indexed":false,"internalType":"bytes32"},{"name":"blockNumber","type":"uint256","indexed":false,"internalType":"uint256"}],"anonymous":false},{"type":"event","name":"EvtHypothesisGraded","inputs":[{"name":"hypothesisKey","type":"bytes32","indexed":true,"internalType":"bytes32"},{"name":"gradeActual","type":"uint8","indexed":false,"internalType":"uint8"}],"anonymous":false},{"type":"event","name":"EvtHypothesisRevealed","inputs":[{"name":"hypothesisKey","type":"bytes32","indexed":true,"internalType":"bytes32"},{"name":"author","type":"address","indexed":true,"internalType":"address"},{"name":"domain","type":"uint8","indexed":false,"internalType":"uint8"},{"name":"revealedAt","type":"uint256","indexed":false,"internalType":"uint256"}],"anonymous":false},{"type":"event","name":"EvtInferenceRevenueRouted","inputs":[{"name":"operator","type":"address","indexed":true,"internalType":"address"},{"name":"operatorAmount","type":"uint256","indexed":false,"internalType":"uint256"},{"name":"treasuryAmount","type":"uint256","indexed":false,"internalType":"uint256"}],"anonymous":false},{"type":"event","name":"EvtIpnftMinted","inputs":[{"name":"hypothesisKey","type":"bytes32","indexed":true,"internalType":"bytes32"},{"name":"nftContract","type":"address","indexed":true,"internalType":"address"},{"name":"owner","type":"address","indexed":true,"internalType":"address"},{"name":"domain","type":"uint8","indexed":false,"internalType":"uint8"},{"name":"gradeAtMint","type":"uint8","indexed":false,"internalType":"uint8"},{"name":"royaltyBps","type":"uint16","indexed":false,"internalType":"uint16"}],"anonymous":false},{"type":"event","name":"EvtLabBooked","inputs":[{"name":"bookingKey","type":"bytes32","indexed":true,"internalType":"bytes32"},{"name":"labKey","type":"bytes32","indexed":true,"internalType":"bytes32"},{"name":"caller","type":"address","indexed":true,"internalType":"address"},{"name":"slotStart","type":"int256","indexed":false,"internalType":"int256"},{"name":"slotEnd","type":"int256","indexed":false,"internalType":"int256"},{"name":"costUsdc","type":"uint256","indexed":false,"internalType":"uint256"}],"anonymous":false},{"type":"event","name":"EvtLabRegistered","inputs":[{"name":"labKey","type":"bytes32","indexed":true,"internalType":"bytes32"},{"name":"operator","type":"address","indexed":true,"internalType":"address"},{"name":"name","type":"string","indexed":false,"internalType":"string"}],"anonymous":false},{"type":"event","name":"EvtMilestoneReleased","inputs":[{"name":"campaignKey","type":"bytes32","indexed":true,"internalType":"bytes32"},{"name":"milestoneIndex","type":"uint8","indexed":false,"internalType":"uint8"},{"name":"amountUsdc","type":"uint256","indexed":false,"internalType":"uint256"}],"anonymous":false},{"type":"event","name":"EvtMilestoneVerified","inputs":[{"name":"campaignKey","type":"bytes32","indexed":true,"internalType":"bytes32"},{"name":"milestoneIndex","type":"uint8","indexed":false,"internalType":"uint8"}],"anonymous":false},{"type":"event","name":"EvtOperatorSlashed","inputs":[{"name":"operator","type":"address","indexed":true,"internalType":"address"},{"name":"slashAmount","type":"uint256","indexed":false,"internalType":"uint256"},{"name":"remainingStake","type":"uint256","indexed":false,"internalType":"uint256"}],"anonymous":false},{"type":"event","name":"EvtPopsClearanceSet","inputs":[{"name":"hypothesisKey","type":"bytes32","indexed":true,"internalType":"bytes32"},{"name":"cleared","type":"bool","indexed":false,"internalType":"bool"}],"anonymous":false},{"type":"event","name":"EvtProtocolInitialized","inputs":[{"name":"config","type":"address","indexed":true,"internalType":"address"},{"name":"authority","type":"address","indexed":true,"internalType":"address"}],"anonymous":false},{"type":"event","name":"EvtStaked","inputs":[{"name":"operator","type":"address","indexed":true,"internalType":"address"},{"name":"amount","type":"uint256","indexed":false,"internalType":"uint256"},{"name":"newTotal","type":"uint256","indexed":false,"internalType":"uint256"}],"anonymous":false},{"type":"event","name":"EvtUnstakeRequested","inputs":[{"name":"operator","type":"address","indexed":true,"internalType":"address"},{"name":"amount","type":"uint256","indexed":false,"internalType":"uint256"},{"name":"availableAt","type":"uint256","indexed":false,"internalType":"uint256"}],"anonymous":false},{"type":"event","name":"EvtUnstakeWithdrawn","inputs":[{"name":"operator","type":"address","indexed":true,"internalType":"address"},{"name":"amount","type":"uint256","indexed":false,"internalType":"uint256"}],"anonymous":false},{"type":"error","name":"AlreadyInitialized","inputs":[]},{"type":"error","name":"BookingNotPending","inputs":[]},{"type":"error","name":"CampaignNotActive","inputs":[]},{"type":"error","name":"CooldownNotElapsed","inputs":[]},{"type":"error","name":"Forbidden","inputs":[]},{"type":"error","name":"GradeInsufficient","inputs":[]},{"type":"error","name":"HashMismatch","inputs":[]},{"type":"error","name":"HypothesisNotCommitted","inputs":[]},{"type":"error","name":"HypothesisNotRevealed","inputs":[]},{"type":"error","name":"HypothesisNotVerified","inputs":[]},{"type":"error","name":"InsufficientStake","inputs":[]},{"type":"error","name":"InsufficientSynapse","inputs":[]},{"type":"error","name":"InvalidMilestoneIndex","inputs":[]},{"type":"error","name":"InvalidSlotTimes","inputs":[]},{"type":"error","name":"MilestoneNotPending","inputs":[]},{"type":"error","name":"MilestoneNotVerified","inputs":[]},{"type":"error","name":"NoPendingUnstake","inputs":[]},{"type":"error","name":"PopsShieldFlagged","inputs":[]},{"type":"error","name":"PopsShieldPending","inputs":[]},{"type":"error","name":"ReentrancyGuardReentrantCall","inputs":[]},{"type":"error","name":"SafeERC20FailedOperation","inputs":[{"name":"token","type":"address","internalType":"address"}]},{"type":"error","name":"SlotUnavailable","inputs":[]},{"type":"error","name":"TooManyMilestones","inputs":[]},{"type":"error","name":"Unauthorized","inputs":[]}],"bytecode":{"object":"0x608060405234801561000f575f80fd5b5060017f9b779b17422d0df92223018b32b4d1fa46e071723d6817e2486d003becc55f00556147d2806100415f395ff3fe608060405234801561000f575f80fd5b506004361061024a575f3560e01c8063817b1cd211610140578063b0024e0d116100bf578063c6a5554a11610084578063c6a5554a14610a3c578063cabe045214610a4f578063cb125ff014610a6f578063cfbccbd214610a82578063d30f1bb114610490578063eae605d714610a95575f80fd5b8063b0024e0d146107d6578063b2c0e4c6146107ff578063bbacc1871461081e578063bc2fcd4b146108df578063bc94f7f814610942575f80fd5b80639d0af4aa116101055780639d0af4aa146106ef578063a22e0a4214610702578063a3c44df01461072d578063a9e87bdb14610740578063afd361fa14610753575f80fd5b8063817b1cd21461069a57806388f9dba2146106a35780638df85847146106b657806390f0e7ef146106c95780639683eac2146106dc575f80fd5b80633ba8a73a116101cc5780635ea27459116101915780635ea27459146104905780636e648537146104a3578063737e4b6e146104c357806379502c55146104d65780637f64d1c714610555575f80fd5b80633ba8a73a146103205780633d10394b1461034a578063507a8c6b1461036a578063576e081c1461037d578063577ee97b1461047d575f80fd5b8063230957211161021257806323095721146102b357806323a763dd146102c65780632ac1dc0f146102d95780632de8b5dd146102fa5780633623b6d31461030d575f80fd5b806301d2700a1461024e57806302ffd5041461025857806303a32be71461026b5780630ac1618b1461027e578063158ef93e14610291575b5f80fd5b610256610aa8565b005b6102566102663660046139ca565b610be4565b610256610279366004613a11565b610c95565b61025661028c366004613a3b565b610d68565b60075461029e9060ff1681565b60405190151581526020015b60405180910390f35b6102566102c1366004613a3b565b610e07565b6102566102d4366004613a52565b610ea2565b6102ec6102e7366004613a95565b611234565b6040519081526020016102aa565b610256610308366004613acd565b611267565b61025661031b366004613aef565b6115fc565b61033361032e366004613a3b565b611657565b6040516102aa9b9a99989796959493929190613b52565b61035d610358366004613a3b565b6117d2565b6040516102aa9190613bd9565b610256610378366004613cba565b6119e1565b61040561038b366004613a3b565b600a6020525f9081526040902080546001820154600283015460038401546004850154600586015460068701546007909701546001600160a01b03871697600160a01b880460c01b9760ff600160e01b8204811698600160e81b8304821698600160f01b909304821697909692821695909492939116918c565b604080516001600160a01b03909d168d526001600160c01b0319909b1660208d015260ff998a169a8c019a909a5296881660608b015294871660808a015260a089019390935290851660c088015260e087015261010086015291909116610120840152610140830152610160820152610180016102aa565b61025661048b366004613a11565b611cbe565b6102ec61049e366004613d0b565b611ea9565b6104b66104b1366004613a3b565b611ebd565b6040516102aa9190613d33565b6102566104d1366004613e06565b612057565b5f5460015460025460035460045460055460065461050b966001600160a01b0390811696811695811694811693811692169087565b604080516001600160a01b03988916815296881660208801529487169486019490945291851660608501528416608084015290921660a082015260c081019190915260e0016102aa565b61068d610563366004613a3b565b60408051610180810182525f80825260208201819052918101829052606081018290526080810182905260a0810182905260c0810182905260e08101829052610100810182905261012081018290526101408101829052610160810191909152505f908152600a602090815260409182902082516101808101845281546001600160a01b0381168252600160a01b810460c090811b6001600160c01b03191694830194909452600160e01b810460ff90811695830195909552600160e81b810485166060830152600160f01b900484166080820152600182015460a08201526002820154841692810192909252600381015460e083015260048101546101008301526005810154909216610120820152600682015461014082015260079091015461016082015290565b6040516102aa9190613e26565b6102ec60085481565b6102566106b1366004613e06565b61215f565b6102566106c4366004613f02565b61225e565b6102566106d7366004613cba565b6127b2565b6102566106ea366004613a3b565b612b0d565b6102566106fd366004613f46565b612c9a565b600b54610715906001600160a01b031681565b6040516001600160a01b0390911681526020016102aa565b61025661073b366004613fc6565b612dbe565b61025661074e366004613fee565b612e8e565b61079f610761366004613aef565b60096020525f90815260409020805460018201546002830154600384015460048501546005909501546001600160a01b039094169492939192909186565b604080516001600160a01b0390971687526020870195909552938501929092526060840152608083015260a082015260c0016102aa565b6107e96107e4366004613a3b565b612fee565b6040516102aa9a99989796959493929190614020565b6102ec61080d366004613a3b565b60106020525f908152604090205481565b61088a61082c366004613a3b565b600e6020525f9081526040902080546001820154600283015460038401546004850154600586015460068701546007880154600889015460099099015497986001600160a01b0390971697959694959394929360ff9092169290918a565b604080519a8b526001600160a01b0390991660208b0152978901969096526060880194909452608087019290925260a086015260ff1660c085015260e0840152610100830152610120820152610140016102aa565b6108f26108ed366004613aef565b6130e2565b6040516102aa919081516001600160a01b031681526020808301519082015260408083015190820152606080830151908201526080808301519082015260a0918201519181019190915260c00190565b610a2f610950366004613a3b565b60408051610140810182525f80825260208201819052918101829052606081018290526080810182905260a0810182905260c0810182905260e081018290526101008101829052610120810191909152505f908152600e60209081526040918290208251610140810184528154815260018201546001600160a01b0316928101929092526002810154928201929092526003820154606082015260048201546080820152600582015460a0820152600682015460ff1660c0820152600782015460e0820152600882015461010082015260099091015461012082015290565b6040516102aa91906140a1565b610256610a4a366004613fc6565b613182565b610a62610a5d366004613a3b565b6132b6565b6040516102aa91906141dc565b6102ec610a7d366004613e06565b6135eb565b610256610a90366004613fc6565b613606565b610256610aa3366004614296565b6136d6565b610ab061383b565b335f9081526009602052604081206003810154909103610ae357604051631509a84360e11b815260040160405180910390fd5b62093a808160020154610af691906142ba565b421015610b1657604051635115ba2f60e11b815260040160405180910390fd5b60038101546001820154811115610b40576040516378de4a6960e11b815260040160405180910390fd5b80826001015f828254610b5391906142cd565b90915550505f600383018190556002830181905560088054839290610b799084906142cd565b9091555050600454610b95906001600160a01b03163383613856565b60405181815233907fb06c589e042e3b62b6ab86857ae9e65f398b74aef5a2a8ed64f1122a8b0d12b49060200160405180910390a25050610be260015f8051602061477d83398151915255565b565b6002546001600160a01b03163314801590610c0957505f546001600160a01b03163314155b15610c26576040516282b42960e81b815260040160405180910390fd5b5f828152600a6020526040902081610c3f576002610c42565b60015b60058201805460ff191660ff92909216919091179055604051821515815283907f7cf7b29ab7874b1a997b49e48cee65fd2578fd27d833094d9379d5a9bd499c78906020015b60405180910390a2505050565b6001546001600160a01b03163314801590610cba57505f546001600160a01b03163314155b15610cd7576040516282b42960e81b815260040160405180910390fd5b5f828152600a6020526040902060028082015460ff1614610d0b57604051638bda343f60e01b815260040160405180910390fd5b805460ff8316600160f01b810260ff60f01b1990921691909117825560028201805460ff1916600317905560405190815283907f594261ee9b6498a7240d95a2292df3942b6bd49d4085b7987daaa7e2de9bddb390602001610c88565b5f818152600e6020526040902060018101546001600160a01b03163314610da257604051631dd2188d60e31b815260040160405180910390fd5b600681015460ff16600114610dca57604051630180583f60e31b815260040160405180910390fd5b60068101805460ff1916600417905560405182907f771a201e4cae38cf59e5375d519c80c2fab795de444b2bb2f38a7ebbfe48b229905f90a25050565b335f908152600960205260409020811580610e255750818160010154105b15610e43576040516378de4a6960e11b815260040160405180910390fd5b42600282018190556003820183905533907feb45a5b0dfb77eba5a47a4863ae787cff55c40f7d34cc7e2727c130f72c279d2908490610e869062093a80906142ba565b6040805192835260208301919091520160405180910390a25050565b610eaa61383b565b5f33610eb960208401846142e0565b604051602001610eca9291906142f9565b60408051601f1981840301815291815281516020928301205f818152600a9093529120549091506001600160a01b031615610f1857604051631dd2188d60e31b815260040160405180910390fd5b600480546040516370a0823160e01b815233928101929092526001600160a01b031690629896809082906370a0823190602401602060405180830381865afa158015610f66573d5f803e3d5ffd5b505050506040513d601f19601f82011682018060405250810190610f8a9190614325565b1015610fa957604051630f61ffef60e21b815260040160405180910390fd5b6004805460405163079cc67960e41b815233928101929092526298968060248301526001600160a01b0316906379cc6790906044015f604051808303815f87803b158015610ff5575f80fd5b505af1158015611007573d5f803e3d5ffd5b505060408051610180810190915233815291505060208082019061102d908601866142e0565b6001600160c01b031916815260200184602001602081019061104f919061433c565b60ff168152602001611067606086016040870161433c565b60ff908116825260208083018290526060808801356040808601919091525f8286018190524360808088019190915260a080880183905260c08089018490526298968060e0808b0191909152426101009a8b01528c8552600a8852938590208a5181548c8a01518d890151998e0151968e01518c16600160f01b0260ff60f01b19978d16600160e81b0260ff60e81b199b8e16600160e01b029b909b1661ffff60e01b1992871c600160a01b026001600160e01b03199094166001600160a01b0390951694909417929092171691909117979097179390931695909517825588015160018201559287015160028401805491871660ff1992831617905590870151600384015594860151600483015561012086015160058301805491909516951694909417909255610140840151600683015561016090930151600790910155339184917f85b9469f9f856e6245f590dbffd81060e905d263f689b2aade7fe252b43cafec916111db91880190880161433c565b6111eb606088016040890161433c565b6040805160ff938416815291909216602082015260608881013582840152439082015290519081900360800190a3505061123160015f8051602061477d83398151915255565b50565b5f8282604051602001611248929190614355565b6040516020818303038152906040528051906020012090505b92915050565b61126f61383b565b5f828152600d602052604090206001810154600160281b90046001600160a01b03166112ae57604051631dd2188d60e31b815260040160405180910390fd5b81356020830135136112d357604051632aefd55f60e21b815260040160405180910390fd5b6040515f906112f2908590853590602001918252602082015260400190565b60408051601f1981840301815291815281516020928301205f818152600e9093529120600101549091506001600160a01b03161561134357604051632eb5323b60e11b815260040160405180910390fd5b600480546040516370a0823160e01b815233928101929092526001600160a01b03169060608501359082906370a0823190602401602060405180830381865afa158015611392573d5f803e3d5ffd5b505050506040513d601f19601f820116820180604052508101906113b69190614325565b10156113d557604051630f61ffef60e21b815260040160405180910390fd5b6001830154600554611401916001600160a01b03918216913391600160281b9004166040880135613890565b6004805460405163079cc67960e41b81523392810192909252606086013560248301526001600160a01b0316906379cc6790906044015f604051808303815f87803b15801561144e575f80fd5b505af1158015611460573d5f803e3d5ffd5b50505050604051806101400160405280868152602001336001600160a01b03168152602001855f01358152602001856020013581526020018560400135815260200185606001358152602001600160ff168152602001856080013581526020015f801b815260200142815250600e5f8481526020019081526020015f205f820151815f01556020820151816001015f6101000a8154816001600160a01b0302191690836001600160a01b0316021790555060408201518160020155606082015181600301556080820151816004015560a0820151816005015560c0820151816006015f6101000a81548160ff021916908360ff16021790555060e0820151816007015561010082015181600801556101208201518160090155905050336001600160a01b031685837fe64fadce64a0178777bcbc0832ec6aadbd25afd307f26208541cb03f7f8c1d48875f0135886020013589604001356040516115d7939291909283526020830191909152604082015260600190565b60405180910390a45050506115f860015f8051602061477d83398151915255565b5050565b60075460ff16801561161857505f546001600160a01b03163314155b15611635576040516282b42960e81b815260040160405180910390fd5b600b80546001600160a01b0319166001600160a01b0392909216919091179055565b600c6020525f908152604090208054600182015460028301546003840180546001600160a01b03948516959394909216929161169290614381565b80601f01602080910402602001604051908101604052809291908181526020018280546116be90614381565b80156117095780601f106116e057610100808354040283529160200191611709565b820191905f5260205f20905b8154815290600101906020018083116116ec57829003601f168201915b505050600484015460058501546006860154600787018054969760ff8086169861010090960416965092945061ffff9091169261174590614381565b80601f016020809104026020016040519081016040528092919081815260200182805461177190614381565b80156117bc5780601f10611793576101008083540402835291602001916117bc565b820191905f5260205f20905b81548152906001019060200180831161179f57829003601f168201915b505050505090806008015490806009015490508b565b6040805161016080820183525f808352602080840182905283850182905260608085018190526080850183905260a0850183905260c0850183905260e08501839052610100850181905261012085018390526101408501839052868352600c8252918590208551938401865280546001600160a01b039081168552600182015492850192909252600281015490911694830194909452600384018054939492939184019161187f90614381565b80601f01602080910402602001604051908101604052809291908181526020018280546118ab90614381565b80156118f65780601f106118cd576101008083540402835291602001916118f6565b820191905f5260205f20905b8154815290600101906020018083116118d957829003601f168201915b5050509183525050600482015460ff808216602084015261010090910416604082015260058201546060820152600682015461ffff16608082015260078201805460a09092019161194690614381565b80601f016020809104026020016040519081016040528092919081815260200182805461197290614381565b80156119bd5780601f10611994576101008083540402835291602001916119bd565b820191905f5260205f20905b8154815290600101906020018083116119a057829003601f168201915b50505050508152602001600882015481526020016009820154815250509050919050565b335f90815260096020526040902060065460018201541015611a16576040516378de4a6960e11b815260040160405180910390fd5b5f33611a2560208501856142e0565b604051602001611a369291906142f9565b60408051601f1981840301815291815281516020928301205f818152600d909352912060010154909150600160281b90046001600160a01b031615611a8e57604051631dd2188d60e31b815260040160405180910390fd5b60408051610140810190915280611aa860208601866143b3565b8080601f0160208091040260200160405190810160405280939291908181526020018383808284375f92019190915250505090825250602001611af160608601604087016143fd565b6001600160e01b0319168152602001611b10608086016060870161433c565b60ff168152602001336001600160a01b03168152602001836001015481526020015f81526020015f60ff168152602001846080016020810190611b539190613aef565b6001600160a01b03168152602090810190611b70908601866142e0565b6001600160c01b0319168152426020918201525f838152600d9091526040902081518190611b9e9082614483565b506020828101516001830180546040860151606087015160e094851c64ffffffffff199093169290921764010000000060ff928316021765010000000000600160c81b031916600160281b6001600160a01b0393841602179092556080860151600286015560a0860151600386015560c08087015160048701805495890151610100808b0151939096166001600160a81b031990971696909617959093169093029390931767ffffffffffffffff60a81b1916600160a81b9290931c9190910291909117905561012090920151600590910155339082907f40972e7d5e020e73667dfd4348df033f541d7166c0d837ebb8fa9968b036311590611ca3908701876143b3565b604051611cb192919061456b565b60405180910390a3505050565b611cc661383b565b5f828152600f60205260409020600281015461010090046001600160a01b03163314801590611cff57505f546001600160a01b03163314155b15611d1d57604051631dd2188d60e31b815260040160405180910390fd5b600681015460ff831610611d445760405163fdf4d87360e01b815260040160405180910390fd5b5f816006018360ff1681548110611d5d57611d5d61457e565b5f9182526020909120600260059092020190810154909150610100900460ff16600114611d9d5760405163b0e33fe960e01b815260040160405180910390fd5b60018101545f85815260106020526040902054811115611dfa5760405162461bcd60e51b8152602060048201526013602482015272115cd8dc9bddc81a5b9cdd59999a58da595b9d606a1b60448201526064015b60405180910390fd5b5f8581526010602052604081208054839290611e179084906142cd565b90915550506002828101805461ff001916610200179055830154600554611e51916001600160a01b03918216916101009091041683613856565b6040805160ff861681526020810183905286917f491057b2cda81d16c0873d3106988e8d90c3918efe627456e8856c3ee60a7a0891015b60405180910390a25050506115f860015f8051602061477d83398151915255565b5f82826040516020016112489291906142f9565b604080516101408101825260608082525f6020830181905292820183905281018290526080810182905260a0810182905260c0810182905260e0810182905261010081018290526101208101919091525f828152600d60205260409081902081516101408101909252805482908290611f3590614381565b80601f0160208091040260200160405190810160405280929190818152602001828054611f6190614381565b8015611fac5780601f10611f8357610100808354040283529160200191611fac565b820191905f5260205f20905b815481529060010190602001808311611f8f57829003601f168201915b5050509183525050600182015460e081811b6001600160e01b0319166020840152640100000000820460ff9081166040850152600160281b9092046001600160a01b03908116606085015260028501546080850152600385015460a0850152600485015492831660c08086019190915261010080850490921692850192909252600160a81b909204901b6001600160c01b031916908201526005909101546101209091015292915050565b61205f61383b565b5f828152600f60205260409020600581015460ff16156120925760405163219a945b60e11b815260040160405180910390fd5b6005546120aa906001600160a01b0316333085613890565b5f83815260106020526040812080548492906120c79084906142ba565b9250508190555081816004015f8282546120e191906142ba565b909155505060038101546004820154106121055760058101805460ff191660011790555b6004810154604080518481526020810192909252339185917f6a1337a2724c7b214476d80a12e0bd2eb3711710349b257c188574a10bda874a910160405180910390a3506115f860015f8051602061477d83398151915255565b5f828152600e6020908152604080832080548452600d9092529091206001810154600160281b90046001600160a01b031633146121af57604051631dd2188d60e31b815260040160405180910390fd5b600682015460ff166002148015906121cf5750600682015460ff16600114155b156121ed57604051630180583f60e31b815260040160405180910390fd5b6008820183905560068201805460ff1916600390811790915581018054600191905f9061221b9084906142ba565b9091555050815460405184815285907f8de7c6e1df2838d3a4ccb7cbc5cdc8c38abefdeedb6d4881e464d4c09787b5fa906020015b60405180910390a350505050565b61226661383b565b5f828152600a6020526040902080546001600160a01b0316331461229d57604051631dd2188d60e31b815260040160405180910390fd5b600281015460ff166003146122c55760405163da4fa8c560e01b815260040160405180910390fd5b8054600160f01b900460ff16158015906122eb57508054600160f01b900460ff16600114155b15612309576040516345ca03bb60e01b815260040160405180910390fd5b600581015460ff1661232d57604051624760a760e91b815260040160405180910390fd5b600581015460ff166001190161235657604051634c3b9aeb60e01b815260040160405180910390fd5b5f838152600c60205260409020600201546001600160a01b03161561238e57604051631dd2188d60e31b815260040160405180910390fd5b600480546040516370a0823160e01b815233928101929092526001600160a01b0316906302faf0809082906370a0823190602401602060405180830381865afa1580156123dd573d5f803e3d5ffd5b505050506040513d601f19601f820116820180604052508101906124019190614325565b101561242057604051630f61ffef60e21b815260040160405180910390fd5b6004805460405163079cc67960e41b8152339281019290925263017d784060248301526001600160a01b0316906379cc6790906044015f604051808303815f87803b15801561246d575f80fd5b505af115801561247f573d5f803e3d5ffd5b5061249d925050506001600160a01b038216333063017d7840613890565b63017d784060085f8282546124b291906142ba565b9091555050600b546001600160a01b03166239a9b833866124d660408801886143b3565b6124e660408a0160208b01614592565b6040518663ffffffff1660e01b81526004016125069594939291906145b3565b5f604051808303815f87803b15801561251d575f80fd5b505af115801561252f573d5f803e3d5ffd5b50506040805161016081018252600b546001600160a01b031681526020810188905233918101919091529150506060810161256a85806143b3565b8080601f0160208091040260200160405190810160405280939291908181526020018383808284375f92019190915250505090825250835460ff600160e01b82048116602080850191909152600160f01b90920416604080840191909152600186015460608401526080909201916125e791908701908701614592565b61ffff1681526020016125fd60408601866143b3565b8080601f0160208091040260200160405190810160405280939291908181526020018383808284375f92018290525093855250506302faf08060208085019190915242604094850152888352600c815291839020845181546001600160a01b03199081166001600160a01b039283161783559386015160018301559385015160028201805490941694169390931790915550606082015160038201906126a39082614483565b50608082015160048201805460a085015160ff93841661ffff19928316176101009490911684021790915560c0840151600584015560e084015160068401805490921661ffff90911617905582015160078201906127019082614483565b50610120820151600882015561014090910151600990910155600b54825433916001600160a01b03169086907fbf63b0fffc109461525f42675fcae782f8f5a1aed9dd126a87078bd0009a8cc29060ff600160e01b8204811691600160f01b90041661277360408a0160208b01614592565b6040805160ff948516815293909216602084015261ffff169082015260600160405180910390a450506115f860015f8051602061477d83398151915255565b600a6127c160808301836145f0565b905011156127e257604051638a71996560e01b815260040160405180910390fd5b5f336127f16020840184614636565b604051602001612802929190614355565b60408051601f1981840301815291815281516020928301205f818152600f90935291206002015490915061010090046001600160a01b03161561285857604051631dd2188d60e31b815260040160405180910390fd5b5f818152600f602090815260409091209061287590840184614636565b81546001600160801b03191660809190911c17815561289760208401846143b3565b60018301916128a791908361464f565b506128b8606084016040850161433c565b60028201805460ff929092166001600160a81b0319909216919091176101003302179055606083013560038201555f6004820181905560058201805460ff191690554260078301555b61290e60808501856145f0565b9050811015612abe57816006016040518060c0016040528086806080019061293691906145f0565b858181106129465761294661457e565b90506020028101906129589190614709565b61296290806143b3565b8080601f0160208091040260200160405190810160405280939291908181526020018383808284375f920191909152505050908252506020016129a860808801886145f0565b858181106129b8576129b861457e565b90506020028101906129ca9190614709565b6020908101358252016129e060808801886145f0565b858181106129f0576129f061457e565b9050602002810190612a029190614709565b612a1390606081019060400161433c565b60ff1681525f6020808301829052604080840183905280518083019091528281526060909301929092528354600181018555938152208151919260050201908190612a5e9082614483565b50602082015160018201556040820151600282018054606085015160ff9081166101000261ffff199092169316929092179190911790556080820151600382015560a08201516004820190612ab39082614483565b505050600101612901565b5033827f623fb711e40a71300435aea951bd02b657b25bf295e6e5d69f5cf5602a67637060608601803590612af6906040890161433c565b6040805192835260ff909116602083015201611cb1565b612b1561383b565b805f03612b3557604051630f61ffef60e21b815260040160405180910390fd5b600480546040516370a0823160e01b815233928101929092526001600160a01b031690829082906370a0823190602401602060405180830381865afa158015612b80573d5f803e3d5ffd5b505050506040513d601f19601f82011682018060405250810190612ba49190614325565b1015612bc357604051630f61ffef60e21b815260040160405180910390fd5b612bd86001600160a01b038216333085613890565b335f90815260096020526040902080546001600160a01b0316612c0c5780546001600160a01b031916331781554260058201555b82816001015f828254612c1f91906142ba565b925050819055508260085f828254612c3791906142ba565b9091555050600181015460405133917fad5f5a64f075a9fac19a36e9424809b6064a9064f95eb9af709f9a369a60c79191612c7a91878252602082015260400190565b60405180910390a2505061123160015f8051602061477d83398151915255565b5f848152600f60205260409020600281015461010090046001600160a01b03163314612cd957604051631dd2188d60e31b815260040160405180910390fd5b600681015460ff851610612d005760405163fdf4d87360e01b815260040160405180910390fd5b5f816006018560ff1681548110612d1957612d1961457e565b5f9182526020909120600260059092020190810154909150610100900460ff1615612d57576040516323a244ef60e11b815260040160405180910390fd5b60028101805461ff00191661010017905542600382015560048101612d7d84868361464f565b5060405160ff8616815286907fe597ec9fdaefdbbe6972498bb0265879fae62e66bd307bd8b245b5b4d3d67c039060200160405180910390a2505050505050565b5f546001600160a01b03163314612de7576040516282b42960e81b815260040160405180910390fd5b612def61383b565b5f612710612dff611b5884614727565b612e09919061473e565b90505f612e1682846142cd565b6004549091506001600160a01b0316612e3181338786613890565b600354612e4d906001600160a01b038381169133911685613890565b60408051848152602081018490526001600160a01b038716917f08810b279a43cf3901663643f7a2467226980419cffd9bd5f3ab29bd106e52359101611e88565b5f33612e9d60208401846142e0565b604051602001612eae9291906142f9565b60408051601f1981840301815291815281516020928301205f818152600a90935291208054919250906001600160a01b03163314612eff57604051631dd2188d60e31b815260040160405180910390fd5b600281015460ff1615612f2557604051633117bfc960e11b815260040160405180910390fd5b5f612f3360208501856143b3565b612f4060408701876143b3565b604051602001612f53949392919061475d565b60405160208183030381529060405280519060200120905081600101548114612f8f57604051633f4d605360e01b815260040160405180910390fd5b6002828101805460ff191690911790554260048301819055825460408051600160e01b90920460ff1682526020820192909252339185917f5977cda3ad9cad94ae99d5b3a7c791be88e97bcb9a9da4bc77c41a74433de9ea9101612250565b600d6020525f908152604090208054819061300890614381565b80601f016020809104026020016040519081016040528092919081815260200182805461303490614381565b801561307f5780601f106130565761010080835404028352916020019161307f565b820191905f5260205f20905b81548152906001019060200180831161306257829003601f168201915b5050506001840154600285015460038601546004870154600590970154959660e084901b9660ff6401000000008604811697506001600160a01b03600160281b909604861696509394929382169261010083041691600160a81b900460c01b908a565b61311e6040518060c001604052805f6001600160a01b031681526020015f81526020015f81526020015f81526020015f81526020015f81525090565b506001600160a01b039081165f90815260096020908152604091829020825160c0810184528154909416845260018101549184019190915260028101549183019190915260038101546060830152600481015460808301526005015460a082015290565b5f546001600160a01b031633146131ab576040516282b42960e81b815260040160405180910390fd5b6131b361383b565b6001600160a01b0382165f908152600960205260408120600181015490919083116131de57826131e4565b81600101545b905080826001015f8282546131f991906142cd565b925050819055506001826004015f82825461321491906142ba565b925050819055508060085f82825461322c91906142cd565b909155505060035460045461324e916001600160a01b03918216911683613856565b836001600160a01b03167f0a48cd33ea339042239839bb1c722476cec74af497d4762102048ab3bce066e0828460010154604051613296929190918252602082015260400190565b60405180910390a250506115f860015f8051602061477d83398151915255565b6133206040518061012001604052805f6fffffffffffffffffffffffffffffffff19168152602001606081526020015f60ff1681526020015f6001600160a01b031681526020015f81526020015f81526020015f60ff168152602001606081526020015f81525090565b5f828152600f602090815260409182902082516101208101909352805460801b6001600160801b0319168352600181018054919284019161336090614381565b80601f016020809104026020016040519081016040528092919081815260200182805461338c90614381565b80156133d75780601f106133ae576101008083540402835291602001916133d7565b820191905f5260205f20905b8154815290600101906020018083116133ba57829003601f168201915b5050509183525050600282015460ff8082166020808501919091526101009092046001600160a01b03166040808501919091526003850154606085015260048501546080850152600585015490911660a084015260068401805482518185028101850190935280835260c09094019391929091905f9084015b828210156135d2578382905f5260205f2090600502016040518060c00160405290815f8201805461348090614381565b80601f01602080910402602001604051908101604052809291908181526020018280546134ac90614381565b80156134f75780601f106134ce576101008083540402835291602001916134f7565b820191905f5260205f20905b8154815290600101906020018083116134da57829003601f168201915b505050918352505060018201546020820152600282015460ff80821660408401526101009091041660608201526003820154608082015260048201805460a09092019161354390614381565b80601f016020809104026020016040519081016040528092919081815260200182805461356f90614381565b80156135ba5780601f10613591576101008083540402835291602001916135ba565b820191905f5260205f20905b81548152906001019060200180831161359d57829003601f168201915b50505050508152505081526020019060010190613450565b5050505081526020016007820154815250509050919050565b60408051602081018490529081018290525f90606001611248565b5f546001600160a01b0316331461362f576040516282b42960e81b815260040160405180910390fd5b61363761383b565b5f612710613647611f4084614727565b613651919061473e565b90505f61365e82846142cd565b6004549091506001600160a01b031661367981338786613890565b600354613695906001600160a01b038381169133911685613890565b60408051848152602081018490526001600160a01b038716917fa034f58dc8b84a45963f4050571e0bbfec95e50dca8419a2d4251bec61dce1539101611e88565b60075460ff16156136f95760405162dc149f60e41b815260040160405180910390fd5b6007805460ff191660011790555f80546001600160a01b031916331790556137246020820182613aef565b600180546001600160a01b0319166001600160a01b03929092169190911790556137546040820160208301613aef565b600280546001600160a01b0319166001600160a01b03929092169190911790556137846060820160408301613aef565b600380546001600160a01b0319166001600160a01b03929092169190911790556137b46080820160608301613aef565b600480546001600160a01b0319166001600160a01b03929092169190911790556137e460a0820160808301613aef565b600580546001600160a01b0319166001600160a01b039290921691909117905560a0810135600655604051339030907fa15610f220f35ab3e26d54868a768607390cbfe140b0532b50545c43e3af8e6f905f90a350565b6138436138cc565b60025f8051602061477d83398151915255565b61386383838360016138fb565b61388b57604051635274afe760e01b81526001600160a01b0384166004820152602401611df1565b505050565b61389e84848484600161395d565b6138c657604051635274afe760e01b81526001600160a01b0385166004820152602401611df1565b50505050565b5f8051602061477d83398151915254600203610be257604051633ee5aeb560e01b815260040160405180910390fd5b60405163a9059cbb60e01b5f8181526001600160a01b038616600452602485905291602083604481808b5af1925060015f51148316613951578383151615613945573d5f823e3d81fd5b5f873b113d1516831692505b60405250949350505050565b6040516323b872dd60e01b5f8181526001600160a01b038781166004528616602452604485905291602083606481808c5af1925060015f511483166139b95783831516156139ad573d5f823e3d81fd5b5f883b113d1516831692505b604052505f60605295945050505050565b5f80604083850312156139db575f80fd5b82359150602083013580151581146139f1575f80fd5b809150509250929050565b803560ff81168114613a0c575f80fd5b919050565b5f8060408385031215613a22575f80fd5b82359150613a32602084016139fc565b90509250929050565b5f60208284031215613a4b575f80fd5b5035919050565b5f60808284031215613a62575f80fd5b50919050565b80356001600160a01b0381168114613a0c575f80fd5b80356001600160801b031981168114613a0c575f80fd5b5f8060408385031215613aa6575f80fd5b613aaf83613a68565b9150613a3260208401613a7e565b5f60a08284031215613a62575f80fd5b5f8060c08385031215613ade575f80fd5b82359150613a328460208501613abd565b5f60208284031215613aff575f80fd5b613b0882613a68565b9392505050565b5f81518084525f5b81811015613b3357602081850181015186830182015201613b17565b505f602082860101526020601f19601f83011685010191505092915050565b6001600160a01b038c81168252602082018c90528a166040820152610160606082018190525f90613b858382018c613b0f565b905060ff8a16608084015260ff891660a08401528760c084015261ffff871660e0840152828103610100840152613bbc8187613b0f565b610120840195909552505061014001529998505050505050505050565b60208152613bf36020820183516001600160a01b03169052565b602082015160408201525f6040830151613c1860608401826001600160a01b03169052565b506060830151610160806080850152613c35610180850183613b0f565b91506080850151613c4b60a086018260ff169052565b5060a085015160ff811660c08601525060c085015160e085015260e0850151610100613c7c8187018361ffff169052565b80870151915050610120601f198685030181870152613c9b8483613b0f565b9087015161014087810191909152909601519190940152509192915050565b5f60208284031215613cca575f80fd5b813567ffffffffffffffff811115613ce0575f80fd5b613cec84828501613abd565b949350505050565b80356001600160c01b031981168114613a0c575f80fd5b5f8060408385031215613d1c575f80fd5b613d2583613a68565b9150613a3260208401613cf4565b602081525f8251610140806020850152613d51610160850183613b0f565b91506020850151613d6e60408601826001600160e01b0319169052565b50604085015160ff811660608601525060608501516001600160a01b038116608086015250608085015160a085015260a085015160c085015260c0850151613dbb60e086018260ff169052565b5060e0850151610100613dd8818701836001600160a01b03169052565b8601519050610120613df5868201836001600160c01b0319169052565b959095015193019290925250919050565b5f8060408385031215613e17575f80fd5b50508035926020909101359150565b81516001600160a01b0316815261018081016020830151613e5360208401826001600160c01b0319169052565b506040830151613e68604084018260ff169052565b506060830151613e7d606084018260ff169052565b506080830151613e92608084018260ff169052565b5060a083015160a083015260c0830151613eb160c084018260ff169052565b5060e0838101519083015261010080840151908301526101208084015160ff1690830152610140808401519083015261016092830151929091019190915290565b5f60608284031215613a62575f80fd5b5f8060408385031215613f13575f80fd5b82359150602083013567ffffffffffffffff811115613f30575f80fd5b613f3c85828601613ef2565b9150509250929050565b5f805f8060608587031215613f59575f80fd5b84359350613f69602086016139fc565b9250604085013567ffffffffffffffff80821115613f85575f80fd5b818701915087601f830112613f98575f80fd5b813581811115613fa6575f80fd5b886020828501011115613fb7575f80fd5b95989497505060200194505050565b5f8060408385031215613fd7575f80fd5b613fe083613a68565b946020939093013593505050565b5f60208284031215613ffe575f80fd5b813567ffffffffffffffff811115614014575f80fd5b613cec84828501613ef2565b5f6101408083526140338184018e613b0f565b6001600160e01b03199c909c166020840152505060ff98891660408201526001600160a01b039788166060820152608081019690965260a08601949094529190951660c08401529390921660e08201526001600160c01b031990921661010083015261012090910152919050565b815181526020808301516101408301916140c5908401826001600160a01b03169052565b5060408301516040830152606083015160608301526080830151608083015260a083015160a083015260c083015161410260c084018260ff169052565b5060e083015160e083015261010080840151818401525061012080840151818401525092915050565b5f82825180855260208086019550808260051b8401018186015f5b848110156141cf57601f19868403018952815160c0815181865261416c82870182613b0f565b838801518789015260408085015160ff90811691890191909152606080860151909116908801526080808501519088015260a0938401518782039488019490945291506141bb90508183613b0f565b9a86019a9450505090830190600101614146565b5090979650505050505050565b602081526141f76020820183516001600160801b0319169052565b5f6020830151610120806040850152614214610140850183613b0f565b9150604085015161422a606086018260ff169052565b5060608501516001600160a01b038116608086015250608085015160a085015260a085015160c085015260c085015161426860e086018260ff169052565b5060e0850151610100601f198685030181870152614286848361412b565b9601519190940152509192915050565b5f60c08284031215613a62575f80fd5b634e487b7160e01b5f52601160045260245ffd5b80820180821115611261576112616142a6565b81810381811115611261576112616142a6565b5f602082840312156142f0575f80fd5b613b0882613cf4565b60609290921b6bffffffffffffffffffffffff191682526001600160c01b0319166014820152601c0190565b5f60208284031215614335575f80fd5b5051919050565b5f6020828403121561434c575f80fd5b613b08826139fc565b60609290921b6bffffffffffffffffffffffff191682526001600160801b031916601482015260240190565b600181811c9082168061439557607f821691505b602082108103613a6257634e487b7160e01b5f52602260045260245ffd5b5f808335601e198436030181126143c8575f80fd5b83018035915067ffffffffffffffff8211156143e2575f80fd5b6020019150368190038213156143f6575f80fd5b9250929050565b5f6020828403121561440d575f80fd5b81356001600160e01b031981168114613b08575f80fd5b634e487b7160e01b5f52604160045260245ffd5b601f82111561388b57805f5260205f20601f840160051c8101602085101561445d5750805b601f840160051c820191505b8181101561447c575f8155600101614469565b5050505050565b815167ffffffffffffffff81111561449d5761449d614424565b6144b1816144ab8454614381565b84614438565b602080601f8311600181146144e4575f84156144cd5750858301515b5f19600386901b1c1916600185901b17855561453b565b5f85815260208120601f198616915b82811015614512578886015182559484019460019091019084016144f3565b508582101561452f57878501515f19600388901b60f8161c191681555b505060018460011b0185555b505050505050565b81835281816020850137505f828201602090810191909152601f909101601f19169091010190565b602081525f613cec602083018486614543565b634e487b7160e01b5f52603260045260245ffd5b5f602082840312156145a2575f80fd5b813561ffff81168114613b08575f80fd5b60018060a01b0386168152846020820152608060408201525f6145da608083018587614543565b905061ffff831660608301529695505050505050565b5f808335601e19843603018112614605575f80fd5b83018035915067ffffffffffffffff82111561461f575f80fd5b6020019150600581901b36038213156143f6575f80fd5b5f60208284031215614646575f80fd5b613b0882613a7e565b67ffffffffffffffff83111561466757614667614424565b61467b836146758354614381565b83614438565b5f601f8411600181146146ac575f85156146955750838201355b5f19600387901b1c1916600186901b17835561447c565b5f83815260208120601f198716915b828110156146db57868501358255602094850194600190920191016146bb565b50868210156146f7575f1960f88860031b161c19848701351681555b505060018560011b0183555050505050565b5f8235605e1983360301811261471d575f80fd5b9190910192915050565b8082028115828204841417611261576112616142a6565b5f8261475857634e487b7160e01b5f52601260045260245ffd5b500490565b838582375f8482015f8152838582375f9301928352509094935050505056fe9b779b17422d0df92223018b32b4d1fa46e071723d6817e2486d003becc55f00a26469706673582212201e1e611a15d88fc5302ed8bdc04bc8c1550da246d0e0c5666375b599275eb0bd64736f6c63430008180033","linkReferences":{}},"methodIdentifiers":{"bookLab(bytes32,(int256,int256,uint256,uint256,bytes32))":"2de8b5dd","bookingKey(bytes32,int256)":"cb125ff0","bookings(bytes32)":"bbacc187","campaignEscrow(bytes32)":"b2c0e4c6","campaignKey(address,bytes16)":"2ac1dc0f","cancelBooking(bytes32)":"0ac1618b","commitHypothesis((bytes8,uint8,uint8,bytes32))":"23a763dd","config()":"79502c55","createCampaign((bytes16,string,uint8,uint256,(string,uint256,uint8)[]))":"90f0e7ef","fundCampaign(bytes32,uint256)":"737e4b6e","getBooking(bytes32)":"bc94f7f8","getCampaign(bytes32)":"cabe0452","getHypothesis(bytes32)":"7f64d1c7","getIpnft(bytes32)":"3d10394b","getLab(bytes32)":"6e648537","getStakeRecord(address)":"bc2fcd4b","hypotheses(bytes32)":"576e081c","hypothesisKey(address,bytes8)":"5ea27459","initializeProtocol((address,address,address,address,address,uint256))":"eae605d7","initialized()":"158ef93e","ipNftContract()":"a22e0a42","ipnfts(bytes32)":"3ba8a73a","labKey(address,bytes8)":"d30f1bb1","labs(bytes32)":"b0024e0d","mintIpnft(bytes32,(string,uint16,string))":"8df85847","registerLab((bytes8,string,bytes4,uint8,address))":"507a8c6b","releaseMilestoneFunds(bytes32,uint8)":"577ee97b","requestUnstake(uint256)":"23095721","revealHypothesis((bytes8,bytes,string))":"a9e87bdb","routeDataQueryRevenue(address,uint256)":"cfbccbd2","routeInferenceRevenue(address,uint256)":"a3c44df0","setHypothesisGrade(bytes32,uint8)":"03a32be7","setIpNftContract(address)":"3623b6d3","setPopsClearance(bytes32,bool)":"02ffd504","slashOperator(address,uint256)":"c6a5554a","stakeRecords(address)":"afd361fa","stakeSynapse(uint256)":"9683eac2","submitExperimentResult(bytes32,bytes32)":"88f9dba2","totalStaked()":"817b1cd2","verifyMilestone(bytes32,uint8,bytes)":"9d0af4aa","withdrawUnstake()":"01d2700a"},"id":51}