{"abi":[{"type":"constructor","inputs":[{"name":"_protocol","type":"address","internalType":"address"}],"stateMutability":"nonpayable"},{"type":"function","name":"approve","inputs":[{"name":"to","type":"address","internalType":"address"},{"name":"tokenId","type":"uint256","internalType":"uint256"}],"outputs":[],"stateMutability":"nonpayable"},{"type":"function","name":"balanceOf","inputs":[{"name":"owner","type":"address","internalType":"address"}],"outputs":[{"name":"","type":"uint256","internalType":"uint256"}],"stateMutability":"view"},{"type":"function","name":"getApproved","inputs":[{"name":"tokenId","type":"uint256","internalType":"uint256"}],"outputs":[{"name":"","type":"address","internalType":"address"}],"stateMutability":"view"},{"type":"function","name":"isApprovedForAll","inputs":[{"name":"owner","type":"address","internalType":"address"},{"name":"operator","type":"address","internalType":"address"}],"outputs":[{"name":"","type":"bool","internalType":"bool"}],"stateMutability":"view"},{"type":"function","name":"mint","inputs":[{"name":"to","type":"address","internalType":"address"},{"name":"tokenId","type":"uint256","internalType":"uint256"},{"name":"uri","type":"string","internalType":"string"},{"name":"royaltyBps_","type":"uint16","internalType":"uint16"}],"outputs":[],"stateMutability":"nonpayable"},{"type":"function","name":"name","inputs":[],"outputs":[{"name":"","type":"string","internalType":"string"}],"stateMutability":"view"},{"type":"function","name":"owner","inputs":[],"outputs":[{"name":"","type":"address","internalType":"address"}],"stateMutability":"view"},{"type":"function","name":"ownerOf","inputs":[{"name":"tokenId","type":"uint256","internalType":"uint256"}],"outputs":[{"name":"","type":"address","internalType":"address"}],"stateMutability":"view"},{"type":"function","name":"protocolContract","inputs":[],"outputs":[{"name":"","type":"address","internalType":"address"}],"stateMutability":"view"},{"type":"function","name":"renounceOwnership","inputs":[],"outputs":[],"stateMutability":"nonpayable"},{"type":"function","name":"royaltyInfo","inputs":[{"name":"tokenId","type":"uint256","internalType":"uint256"},{"name":"salePrice","type":"uint256","internalType":"uint256"}],"outputs":[{"name":"receiver","type":"address","internalType":"address"},{"name":"royaltyAmount","type":"uint256","internalType":"uint256"}],"stateMutability":"view"},{"type":"function","name":"safeTransferFrom","inputs":[{"name":"from","type":"address","internalType":"address"},{"name":"to","type":"address","internalType":"address"},{"name":"tokenId","type":"uint256","internalType":"uint256"}],"outputs":[],"stateMutability":"nonpayable"},{"type":"function","name":"safeTransferFrom","inputs":[{"name":"from","type":"address","internalType":"address"},{"name":"to","type":"address","internalType":"address"},{"name":"tokenId","type":"uint256","internalType":"uint256"},{"name":"data","type":"bytes","internalType":"bytes"}],"outputs":[],"stateMutability":"nonpayable"},{"type":"function","name":"setApprovalForAll","inputs":[{"name":"operator","type":"address","internalType":"address"},{"name":"approved","type":"bool","internalType":"bool"}],"outputs":[],"stateMutability":"nonpayable"},{"type":"function","name":"supportsInterface","inputs":[{"name":"interfaceId","type":"bytes4","internalType":"bytes4"}],"outputs":[{"name":"","type":"bool","internalType":"bool"}],"stateMutability":"view"},{"type":"function","name":"symbol","inputs":[],"outputs":[{"name":"","type":"string","internalType":"string"}],"stateMutability":"view"},{"type":"function","name":"tokenURI","inputs":[{"name":"tokenId","type":"uint256","internalType":"uint256"}],"outputs":[{"name":"","type":"string","internalType":"string"}],"stateMutability":"view"},{"type":"function","name":"transferFrom","inputs":[{"name":"from","type":"address","internalType":"address"},{"name":"to","type":"address","internalType":"address"},{"name":"tokenId","type":"uint256","internalType":"uint256"}],"outputs":[],"stateMutability":"nonpayable"},{"type":"function","name":"transferOwnership","inputs":[{"name":"newOwner","type":"address","internalType":"address"}],"outputs":[],"stateMutability":"nonpayable"},{"type":"event","name":"Approval","inputs":[{"name":"owner","type":"address","indexed":true,"internalType":"address"},{"name":"approved","type":"address","indexed":true,"internalType":"address"},{"name":"tokenId","type":"uint256","indexed":true,"internalType":"uint256"}],"anonymous":false},{"type":"event","name":"ApprovalForAll","inputs":[{"name":"owner","type":"address","indexed":true,"internalType":"address"},{"name":"operator","type":"address","indexed":true,"internalType":"address"},{"name":"approved","type":"bool","indexed":false,"internalType":"bool"}],"anonymous":false},{"type":"event","name":"BatchMetadataUpdate","inputs":[{"name":"_fromTokenId","type":"uint256","indexed":false,"internalType":"uint256"},{"name":"_toTokenId","type":"uint256","indexed":false,"internalType":"uint256"}],"anonymous":false},{"type":"event","name":"IpnftMintedInternal","inputs":[{"name":"tokenId","type":"uint256","indexed":true,"internalType":"uint256"},{"name":"to","type":"address","indexed":true,"internalType":"address"}],"anonymous":false},{"type":"event","name":"MetadataUpdate","inputs":[{"name":"_tokenId","type":"uint256","indexed":false,"internalType":"uint256"}],"anonymous":false},{"type":"event","name":"OwnershipTransferred","inputs":[{"name":"previousOwner","type":"address","indexed":true,"internalType":"address"},{"name":"newOwner","type":"address","indexed":true,"internalType":"address"}],"anonymous":false},{"type":"event","name":"Transfer","inputs":[{"name":"from","type":"address","indexed":true,"internalType":"address"},{"name":"to","type":"address","indexed":true,"internalType":"address"},{"name":"tokenId","type":"uint256","indexed":true,"internalType":"uint256"}],"anonymous":false},{"type":"error","name":"ERC721IncorrectOwner","inputs":[{"name":"sender","type":"address","internalType":"address"},{"name":"tokenId","type":"uint256","internalType":"uint256"},{"name":"owner","type":"address","internalType":"address"}]},{"type":"error","name":"ERC721InsufficientApproval","inputs":[{"name":"operator","type":"address","internalType":"address"},{"name":"tokenId","type":"uint256","internalType":"uint256"}]},{"type":"error","name":"ERC721InvalidApprover","inputs":[{"name":"approver","type":"address","internalType":"address"}]},{"type":"error","name":"ERC721InvalidOperator","inputs":[{"name":"operator","type":"address","internalType":"address"}]},{"type":"error","name":"ERC721InvalidOwner","inputs":[{"name":"owner","type":"address","internalType":"address"}]},{"type":"error","name":"ERC721InvalidReceiver","inputs":[{"name":"receiver","type":"address","internalType":"address"}]},{"type":"error","name":"ERC721InvalidSender","inputs":[{"name":"sender","type":"address","internalType":"address"}]},{"type":"error","name":"ERC721NonexistentToken","inputs":[{"name":"tokenId","type":"uint256","internalType":"uint256"}]},{"type":"error","name":"OwnableInvalidOwner","inputs":[{"name":"owner","type":"address","internalType":"address"}]},{"type":"error","name":"OwnableUnauthorizedAccount","inputs":[{"name":"account","type":"address","internalType":"address"}]}],"bytecode":{"object":"0x608060405234801562000010575f80fd5b50604051620018af380380620018af83398101604081905262000033916200014d565b806040518060400160405280600e81526020016d14de5b985c1cd94812540b53919560921b8152506040518060400160405280600681526020016514d25413919560d21b815250815f90816200008a91906200021a565b5060016200009982826200021a565b5050506001600160a01b038116620000ca57604051631e4fbdf760e01b81525f600482015260240160405180910390fd5b620000d581620000fc565b50600880546001600160a01b0319166001600160a01b0392909216919091179055620002e6565b600780546001600160a01b038381166001600160a01b0319831681179093556040519116919082907f8be0079c531659141344cd1fd0a4f28419497f9722a3daafe3b4186f6b6457e0905f90a35050565b5f602082840312156200015e575f80fd5b81516001600160a01b038116811462000175575f80fd5b9392505050565b634e487b7160e01b5f52604160045260245ffd5b600181811c90821680620001a557607f821691505b602082108103620001c457634e487b7160e01b5f52602260045260245ffd5b50919050565b601f8211156200021557805f5260205f20601f840160051c81016020851015620001f15750805b601f840160051c820191505b8181101562000212575f8155600101620001fd565b50505b505050565b81516001600160401b038111156200023657620002366200017c565b6200024e8162000247845462000190565b84620001ca565b602080601f83116001811462000284575f84156200026c5750858301515b5f19600386901b1c1916600185901b178555620002de565b5f85815260208120601f198616915b82811015620002b45788860151825594840194600190910190840162000293565b5085821015620002d257878501515f19600388901b60f8161c191681555b505060018460011b0185555b505050505050565b6115bb80620002f45f395ff3fe608060405234801561000f575f80fd5b506004361061011b575f3560e01c806370a08231116100a9578063a76a2fcb1161006e578063a76a2fcb1461026f578063b88d4fde14610282578063c87b56dd14610295578063e985e9c5146102a8578063f2fde38b146102bb575f80fd5b806370a082311461021a578063715018a61461023b5780638da5cb5b1461024357806395d89b4114610254578063a22cb4651461025c575f80fd5b8063095ea7b3116100ef578063095ea7b31461019c57806323b872dd146101af5780632a55205a146101c257806342842e0e146101f45780636352211e14610207575f80fd5b806239a9b81461011f57806301ffc9a71461013457806306fdde031461015c578063081812fc14610171575b5f80fd5b61013261012d36600461105c565b6102ce565b005b610147610142366004611111565b6103d9565b60405190151581526020015b60405180910390f35b610164610403565b6040516101539190611179565b61018461017f36600461118b565b610492565b6040516001600160a01b039091168152602001610153565b6101326101aa3660046111a2565b6104b9565b6101326101bd3660046111ca565b6104c8565b6101d56101d0366004611203565b610551565b604080516001600160a01b039093168352602083019190915201610153565b6101326102023660046111ca565b61059c565b61018461021536600461118b565b6105bb565b61022d610228366004611223565b6105c5565b604051908152602001610153565b61013261060a565b6007546001600160a01b0316610184565b61016461061d565b61013261026a36600461123c565b61062c565b600854610184906001600160a01b031681565b610132610290366004611289565b610637565b6101646102a336600461118b565b61064f565b6101476102b636600461135e565b6106d0565b6101326102c9366004611223565b6106fd565b6008546001600160a01b0316331461031c5760405162461bcd60e51b815260206004820152600c60248201526b139bdd081c1c9bdd1bd8dbdb60a21b60448201526064015b60405180910390fd5b610326858561073a565b6103658484848080601f0160208091040260200160405190810160405280939291908181526020018383808284375f9201919091525061079b92505050565b5f848152600960209081526040808320805461ffff191661ffff8616179055600a90915280822080546001600160a01b0319166001600160a01b0389169081179091559051909186917f0ee12866bad1b97dd429682b2a2418c8bf1edf94a041b71f9b43ba6968263a499190a35050505050565b5f6001600160e01b0319821663152a902d60e11b14806103fd57506103fd826107ea565b92915050565b60605f805461041190611386565b80601f016020809104026020016040519081016040528092919081815260200182805461043d90611386565b80156104885780601f1061045f57610100808354040283529160200191610488565b820191905f5260205f20905b81548152906001019060200180831161046b57829003601f168201915b5050505050905090565b5f61049c8261080e565b505f828152600460205260409020546001600160a01b03166103fd565b6104c4828233610846565b5050565b6001600160a01b0382166104f157604051633250574960e11b81525f6004820152602401610313565b5f6104fd838333610853565b9050836001600160a01b0316816001600160a01b03161461054b576040516364283d7b60e01b81526001600160a01b0380861660048301526024820184905282166044820152606401610313565b50505050565b5f828152600a602090815260408083205460099092528220546001600160a01b039091169190612710906105899061ffff16856113be565b61059391906113e1565b90509250929050565b6105b683838360405180602001604052805f815250610637565b505050565b5f6103fd8261080e565b5f6001600160a01b0382166105ef576040516322718ad960e21b81525f6004820152602401610313565b506001600160a01b03165f9081526003602052604090205490565b610612610945565b61061b5f610972565b565b60606001805461041190611386565b6104c43383836109c3565b6106428484846104c8565b61054b3385858585610a8a565b606061065a8261080e565b505f61067060408051602081019091525f815290565b90505f61067c84610bb2565b905081515f0361068d579392505050565b8051156106bf5781816040516020016106a7929190611400565b60405160208183030381529060405292505050919050565b6106c884610c51565b949350505050565b6001600160a01b039182165f90815260056020908152604080832093909416825291909152205460ff1690565b610705610945565b6001600160a01b03811661072e57604051631e4fbdf760e01b81525f6004820152602401610313565b61073781610972565b50565b6001600160a01b03821661076357604051633250574960e11b81525f6004820152602401610313565b5f61076f83835f610853565b90506001600160a01b038116156105b6576040516339e3563760e11b81525f6004820152602401610313565b5f8281526006602052604090206107b28282611472565b506040518281527ff8e1a15aba9398e019f0b49df1a4fde98ee17ae345cb5f6b5e2c27f5033e8ce79060200160405180910390a15050565b5f6001600160e01b03198216632483248360e11b14806103fd57506103fd82610cc2565b5f818152600260205260408120546001600160a01b0316806103fd57604051637e27328960e01b815260048101849052602401610313565b6105b68383836001610d11565b5f828152600260205260408120546001600160a01b039081169083161561087f5761087f818486610e15565b6001600160a01b038116156108b95761089a5f855f80610d11565b6001600160a01b0381165f90815260036020526040902080545f190190555b6001600160a01b038516156108e7576001600160a01b0385165f908152600360205260409020805460010190555b5f8481526002602052604080822080546001600160a01b0319166001600160a01b0389811691821790925591518793918516917fddf252ad1be2c89b69c2b068fc378daa952ba7f163c4a11628f55a4df523b3ef91a4949350505050565b6007546001600160a01b0316331461061b5760405163118cdaa760e01b8152336004820152602401610313565b600780546001600160a01b038381166001600160a01b0319831681179093556040519116919082907f8be0079c531659141344cd1fd0a4f28419497f9722a3daafe3b4186f6b6457e0905f90a35050565b6001600160a01b0383166109ec5760405163a9fbf51f60e01b81525f6004820152602401610313565b6001600160a01b038216610a1e57604051630b61174360e31b81526001600160a01b0383166004820152602401610313565b6001600160a01b038381165f81815260056020908152604080832094871680845294825291829020805460ff191686151590811790915591519182527f17307eab39ab6107e8899845ad3d59bd9653f200f220920489ca2b5937696c31910160405180910390a3505050565b6001600160a01b0383163b15610bab57604051630a85bd0160e11b81526001600160a01b0384169063150b7a0290610acc90889088908790879060040161152e565b6020604051808303815f875af1925050508015610b06575060408051601f3d908101601f19168201909252610b039181019061156a565b60015b610b6d573d808015610b33576040519150601f19603f3d011682016040523d82523d5f602084013e610b38565b606091505b5080515f03610b6557604051633250574960e11b81526001600160a01b0385166004820152602401610313565b805160208201fd5b6001600160e01b03198116630a85bd0160e11b14610ba957604051633250574960e11b81526001600160a01b0385166004820152602401610313565b505b5050505050565b5f818152600660205260409020805460609190610bce90611386565b80601f0160208091040260200160405190810160405280929190818152602001828054610bfa90611386565b8015610c455780601f10610c1c57610100808354040283529160200191610c45565b820191905f5260205f20905b815481529060010190602001808311610c2857829003601f168201915b50505050509050919050565b6060610c5c8261080e565b505f610c7260408051602081019091525f815290565b90505f815111610c905760405180602001604052805f815250610cbb565b80610c9a84610e79565b604051602001610cab929190611400565b6040516020818303038152906040525b9392505050565b5f6001600160e01b031982166380ac58cd60e01b1480610cf257506001600160e01b03198216635b5e139f60e01b145b806103fd57506301ffc9a760e01b6001600160e01b03198316146103fd565b8080610d2557506001600160a01b03821615155b15610de6575f610d348461080e565b90506001600160a01b03831615801590610d605750826001600160a01b0316816001600160a01b031614155b8015610d735750610d7181846106d0565b155b15610d9c5760405163a9fbf51f60e01b81526001600160a01b0384166004820152602401610313565b8115610de45783856001600160a01b0316826001600160a01b03167f8c5be1e5ebec7d5bd14f71427d1e84f3dd0314c0f7b2291e5b200ac8c7c3b92560405160405180910390a45b505b50505f90815260046020526040902080546001600160a01b0319166001600160a01b0392909216919091179055565b610e20838383610f09565b6105b6576001600160a01b038316610e4e57604051637e27328960e01b815260048101829052602401610313565b60405163177e802f60e01b81526001600160a01b038316600482015260248101829052604401610313565b60605f610e8583610f6a565b60010190505f8167ffffffffffffffff811115610ea457610ea4611275565b6040519080825280601f01601f191660200182016040528015610ece576020820181803683370190505b5090508181016020015b5f19016f181899199a1a9b1b9c1cb0b131b232b360811b600a86061a8153600a8504945084610ed857509392505050565b5f6001600160a01b038316158015906106c85750826001600160a01b0316846001600160a01b03161480610f425750610f4284846106d0565b806106c85750505f908152600460205260409020546001600160a01b03908116911614919050565b5f8072184f03e93ff9f4daa797ed6e38ed64bf6a1f0160401b8310610fa85772184f03e93ff9f4daa797ed6e38ed64bf6a1f0160401b830492506040015b6d04ee2d6d415b85acef81000000008310610fd4576d04ee2d6d415b85acef8100000000830492506020015b662386f26fc100008310610ff257662386f26fc10000830492506010015b6305f5e100831061100a576305f5e100830492506008015b612710831061101e57612710830492506004015b60648310611030576064830492506002015b600a83106103fd5760010192915050565b80356001600160a01b0381168114611057575f80fd5b919050565b5f805f805f60808688031215611070575f80fd5b61107986611041565b945060208601359350604086013567ffffffffffffffff8082111561109c575f80fd5b818801915088601f8301126110af575f80fd5b8135818111156110bd575f80fd5b8960208285010111156110ce575f80fd5b602083019550809450505050606086013561ffff811681146110ee575f80fd5b809150509295509295909350565b6001600160e01b031981168114610737575f80fd5b5f60208284031215611121575f80fd5b8135610cbb816110fc565b5f5b8381101561114657818101518382015260200161112e565b50505f910152565b5f815180845261116581602086016020860161112c565b601f01601f19169290920160200192915050565b602081525f610cbb602083018461114e565b5f6020828403121561119b575f80fd5b5035919050565b5f80604083850312156111b3575f80fd5b6111bc83611041565b946020939093013593505050565b5f805f606084860312156111dc575f80fd5b6111e584611041565b92506111f360208501611041565b9150604084013590509250925092565b5f8060408385031215611214575f80fd5b50508035926020909101359150565b5f60208284031215611233575f80fd5b610cbb82611041565b5f806040838503121561124d575f80fd5b61125683611041565b91506020830135801515811461126a575f80fd5b809150509250929050565b634e487b7160e01b5f52604160045260245ffd5b5f805f806080858703121561129c575f80fd5b6112a585611041565b93506112b360208601611041565b925060408501359150606085013567ffffffffffffffff808211156112d6575f80fd5b818701915087601f8301126112e9575f80fd5b8135818111156112fb576112fb611275565b604051601f8201601f19908116603f0116810190838211818310171561132357611323611275565b816040528281528a602084870101111561133b575f80fd5b826020860160208301375f60208483010152809550505050505092959194509250565b5f806040838503121561136f575f80fd5b61137883611041565b915061059360208401611041565b600181811c9082168061139a57607f821691505b6020821081036113b857634e487b7160e01b5f52602260045260245ffd5b50919050565b80820281158282048414176103fd57634e487b7160e01b5f52601160045260245ffd5b5f826113fb57634e487b7160e01b5f52601260045260245ffd5b500490565b5f835161141181846020880161112c565b83519083019061142581836020880161112c565b01949350505050565b601f8211156105b657805f5260205f20601f840160051c810160208510156114535750805b601f840160051c820191505b81811015610bab575f815560010161145f565b815167ffffffffffffffff81111561148c5761148c611275565b6114a08161149a8454611386565b8461142e565b602080601f8311600181146114d3575f84156114bc5750858301515b5f19600386901b1c1916600185901b178555610ba9565b5f85815260208120601f198616915b82811015611501578886015182559484019460019091019084016114e2565b508582101561151e57878501515f19600388901b60f8161c191681555b5050505050600190811b01905550565b6001600160a01b03858116825284166020820152604081018390526080606082018190525f906115609083018461114e565b9695505050505050565b5f6020828403121561157a575f80fd5b8151610cbb816110fc56fea26469706673582212206c887ad77e9839b0e0e802e21bea62ceabb7ddae232638935e8583172f82cf3c64736f6c63430008180033","linkReferences":{}},"methodIdentifiers":{"approve(address,uint256)":"095ea7b3","balanceOf(address)":"70a08231","getApproved(uint256)":"081812fc","isApprovedForAll(address,address)":"e985e9c5","mint(address,uint256,string,uint16)":"0039a9b8","name()":"06fdde03","owner()":"8da5cb5b","ownerOf(uint256)":"6352211e","protocolContract()":"a76a2fcb","renounceOwnership()":"715018a6","royaltyInfo(uint256,uint256)":"2a55205a","safeTransferFrom(address,address,uint256)":"42842e0e","safeTransferFrom(address,address,uint256,bytes)":"b88d4fde","setApprovalForAll(address,bool)":"a22cb465","supportsInterface(bytes4)":"01ffc9a7","symbol()":"95d89b41","tokenURI(uint256)":"c87b56dd","transferFrom(address,address,uint256)":"23b872dd","transferOwnership(address)":"f2fde38b"},"id":52}