{"abi":[{"type":"function","name":"bookLab","inputs":[{"name":"lKey","type":"bytes32","internalType":"bytes32"},{"name":"params","type":"tuple","internalType":"struct BookLabParams","components":[{"name":"slotStart","type":"int256","internalType":"int256"},{"name":"slotEnd","type":"int256","internalType":"int256"},{"name":"costUsdc","type":"uint256","internalType":"uint256"},{"name":"feeSynapse","type":"uint256","internalType":"uint256"},{"name":"hypothesis","type":"bytes32","internalType":"bytes32"}]}],"outputs":[],"stateMutability":"nonpayable"},{"type":"function","name":"bookingKey","inputs":[{"name":"_labKey","type":"bytes32","internalType":"bytes32"},{"name":"slotStart","type":"int256","internalType":"int256"}],"outputs":[{"name":"","type":"bytes32","internalType":"bytes32"}],"stateMutability":"pure"},{"type":"function","name":"bookings","inputs":[{"name":"","type":"bytes32","internalType":"bytes32"}],"outputs":[{"name":"labKey","type":"bytes32","internalType":"bytes32"},{"name":"callerWallet","type":"address","internalType":"address"},{"name":"slotStart","type":"int256","internalType":"int256"},{"name":"slotEnd","type":"int256","internalType":"int256"},{"name":"costUsdc","type":"uint256","internalType":"uint256"},{"name":"feeSynapseBurned","type":"uint256","internalType":"uint256"},{"name":"status","type":"uint8","internalType":"uint8"},{"name":"hypothesis","type":"bytes32","internalType":"bytes32"},{"name":"resultHash","type":"bytes32","internalType":"bytes32"},{"name":"createdAt","type":"uint256","internalType":"uint256"}],"stateMutability":"view"},{"type":"function","name":"campaignEscrow","inputs":[{"name":"","type":"bytes32","internalType":"bytes32"}],"outputs":[{"name":"","type":"uint256","internalType":"uint256"}],"stateMutability":"view"},{"type":"function","name":"campaignKey","inputs":[{"name":"lead","type":"address","internalType":"address"},{"name":"campaignId","type":"bytes16","internalType":"bytes16"}],"outputs":[{"name":"","type":"bytes32","internalType":"bytes32"}],"stateMutability":"pure"},{"type":"function","name":"cancelBooking","inputs":[{"name":"bKey","type":"bytes32","internalType":"bytes32"}],"outputs":[],"stateMutability":"nonpayable"},{"type":"function","name":"commitHypothesis","inputs":[{"name":"params","type":"tuple","internalType":"struct CommitHypothesisParams","components":[{"name":"shortId","type":"bytes8","internalType":"bytes8"},{"name":"domain","type":"uint8","internalType":"uint8"},{"name":"gradeTarget","type":"uint8","internalType":"uint8"},{"name":"saltedHash","type":"bytes32","internalType":"bytes32"}]}],"outputs":[],"stateMutability":"nonpayable"},{"type":"function","name":"config","inputs":[],"outputs":[{"name":"authority","type":"address","internalType":"address"},{"name":"evidenceGrader","type":"address","internalType":"address"},{"name":"biosecurityAgent","type":"address","internalType":"address"},{"name":"treasuryWallet","type":"address","internalType":"address"},{"name":"synapseMint","type":"address","internalType":"address"},{"name":"usdcMint","type":"address","internalType":"address"},{"name":"minLabStake","type":"uint256","internalType":"uint256"}],"stateMutability":"view"},{"type":"function","name":"createCampaign","inputs":[{"name":"params","type":"tuple","internalType":"struct CreateCampaignParams","components":[{"name":"id","type":"bytes16","internalType":"bytes16"},{"name":"title","type":"string","internalType":"string"},{"name":"domain","type":"uint8","internalType":"uint8"},{"name":"targetUsdc","type":"uint256","internalType":"uint256"},{"name":"milestones","type":"tuple[]","internalType":"struct MilestoneInit[]","components":[{"name":"title","type":"string","internalType":"string"},{"name":"fundReleaseUsdc","type":"uint256","internalType":"uint256"},{"name":"requiredGrade","type":"uint8","internalType":"uint8"}]}]}],"outputs":[],"stateMutability":"nonpayable"},{"type":"function","name":"fundCampaign","inputs":[{"name":"cKey","type":"bytes32","internalType":"bytes32"},{"name":"amountUsdc","type":"uint256","internalType":"uint256"}],"outputs":[],"stateMutability":"nonpayable"},{"type":"function","name":"getBooking","inputs":[{"name":"key","type":"bytes32","internalType":"bytes32"}],"outputs":[{"name":"","type":"tuple","internalType":"struct BookingRecord","components":[{"name":"labKey","type":"bytes32","internalType":"bytes32"},{"name":"callerWallet","type":"address","internalType":"address"},{"name":"slotStart","type":"int256","internalType":"int256"},{"name":"slotEnd","type":"int256","internalType":"int256"},{"name":"costUsdc","type":"uint256","internalType":"uint256"},{"name":"feeSynapseBurned","type":"uint256","internalType":"uint256"},{"name":"status","type":"uint8","internalType":"uint8"},{"name":"hypothesis","type":"bytes32","internalType":"bytes32"},{"name":"resultHash","type":"bytes32","internalType":"bytes32"},{"name":"createdAt","type":"uint256","internalType":"uint256"}]}],"stateMutability":"view"},{"type":"function","name":"getCampaign","inputs":[{"name":"key","type":"bytes32","internalType":"bytes32"}],"outputs":[{"name":"","type":"tuple","internalType":"struct CampaignRecord","components":[{"name":"id","type":"bytes16","internalType":"bytes16"},{"name":"title","type":"string","internalType":"string"},{"name":"domain","type":"uint8","internalType":"uint8"},{"name":"leadWallet","type":"address","internalType":"address"},{"name":"targetUsdc","type":"uint256","internalType":"uint256"},{"name":"raisedUsdc","type":"uint256","internalType":"uint256"},{"name":"status","type":"uint8","internalType":"uint8"},{"name":"milestones","type":"tuple[]","internalType":"struct MilestoneData[]","components":[{"name":"title","type":"string","internalType":"string"},{"name":"fundReleaseUsdc","type":"uint256","internalType":"uint256"},{"name":"requiredGrade","type":"uint8","internalType":"uint8"},{"name":"status","type":"uint8","internalType":"uint8"},{"name":"verifiedAt","type":"uint256","internalType":"uint256"},{"name":"evidenceSig","type":"bytes","internalType":"bytes"}]},{"name":"createdAt","type":"uint256","internalType":"uint256"}]}],"stateMutability":"view"},{"type":"function","name":"getHypothesis","inputs":[{"name":"key","type":"bytes32","internalType":"bytes32"}],"outputs":[{"name":"","type":"tuple","internalType":"struct HypothesisRecord","components":[{"name":"author","type":"address","internalType":"address"},{"name":"shortId","type":"bytes8","internalType":"bytes8"},{"name":"domain","type":"uint8","internalType":"uint8"},{"name":"gradeTarget","type":"uint8","internalType":"uint8"},{"name":"gradeActual","type":"uint8","internalType":"uint8"},{"name":"saltedHash","type":"bytes32","internalType":"bytes32"},{"name":"status","type":"uint8","internalType":"uint8"},{"name":"onChainBlock","type":"uint256","internalType":"uint256"},{"name":"revealedAt","type":"uint256","internalType":"uint256"},{"name":"popsClearance","type":"uint8","internalType":"uint8"},{"name":"burnAmount","type":"uint256","internalType":"uint256"},{"name":"createdAt","type":"uint256","internalType":"uint256"}]}],"stateMutability":"view"},{"type":"function","name":"getIpnft","inputs":[{"name":"key","type":"bytes32","internalType":"bytes32"}],"outputs":[{"name":"","type":"tuple","internalType":"struct IpnftRecord","components":[{"name":"mintAddress","type":"address","internalType":"address"},{"name":"hypothesis","type":"bytes32","internalType":"bytes32"},{"name":"owner","type":"address","internalType":"address"},{"name":"title","type":"string","internalType":"string"},{"name":"domain","type":"uint8","internalType":"uint8"},{"name":"gradeAtMint","type":"uint8","internalType":"uint8"},{"name":"commitHash","type":"bytes32","internalType":"bytes32"},{"name":"royaltyBps","type":"uint16","internalType":"uint16"},{"name":"metadataUri","type":"string","internalType":"string"},{"name":"burnAmount","type":"uint256","internalType":"uint256"},{"name":"createdAt","type":"uint256","internalType":"uint256"}]}],"stateMutability":"view"},{"type":"function","name":"getLab","inputs":[{"name":"key","type":"bytes32","internalType":"bytes32"}],"outputs":[{"name":"","type":"tuple","internalType":"struct LabRecord","components":[{"name":"name","type":"string","internalType":"string"},{"name":"country","type":"bytes4","internalType":"bytes4"},{"name":"kind","type":"uint8","internalType":"uint8"},{"name":"operatorWallet","type":"address","internalType":"address"},{"name":"stakedSynapse","type":"uint256","internalType":"uint256"},{"name":"completedExperiments","type":"uint256","internalType":"uint256"},{"name":"status","type":"uint8","internalType":"uint8"},{"name":"nftMintAddress","type":"address","internalType":"address"},{"name":"labId","type":"bytes8","internalType":"bytes8"},{"name":"createdAt","type":"uint256","internalType":"uint256"}]}],"stateMutability":"view"},{"type":"function","name":"getStakeRecord","inputs":[{"name":"who","type":"address","internalType":"address"}],"outputs":[{"name":"","type":"tuple","internalType":"struct StakeRecord","components":[{"name":"operator","type":"address","internalType":"address"},{"name":"stakedAmount","type":"uint256","internalType":"uint256"},{"name":"lastUnstakeRequest","type":"uint256","internalType":"uint256"},{"name":"unstakeRequestAmount","type":"uint256","internalType":"uint256"},{"name":"slashCount","type":"uint256","internalType":"uint256"},{"name":"createdAt","type":"uint256","internalType":"uint256"}]}],"stateMutability":"view"},{"type":"function","name":"hypotheses","inputs":[{"name":"","type":"bytes32","internalType":"bytes32"}],"outputs":[{"name":"author","type":"address","internalType":"address"},{"name":"shortId","type":"bytes8","internalType":"bytes8"},{"name":"domain","type":"uint8","internalType":"uint8"},{"name":"gradeTarget","type":"uint8","internalType":"uint8"},{"name":"gradeActual","type":"uint8","internalType":"uint8"},{"name":"saltedHash","type":"bytes32","internalType":"bytes32"},{"name":"status","type":"uint8","internalType":"uint8"},{"name":"onChainBlock","type":"uint256","internalType":"uint256"},{"name":"revealedAt","type":"uint256","internalType":"uint256"},{"name":"popsClearance","type":"uint8","internalType":"uint8"},{"name":"burnAmount","type":"uint256","internalType":"uint256"},{"name":"createdAt","type":"uint256","internalType":"uint256"}],"stateMutability":"view"},{"type":"function","name":"hypothesisKey","inputs":[{"name":"author","type":"address","internalType":"address"},{"name":"shortId","type":"bytes8","internalType":"bytes8"}],"outputs":[{"name":"","type":"bytes32","internalType":"bytes32"}],"stateMutability":"pure"},{"type":"function","name":"initializeProtocol","inputs":[{"name":"params","type":"tuple","internalType":"struct InitializeProtocolParams","components":[{"name":"evidenceGrader","type":"address","internalType":"address"},{"name":"biosecurityAgent","type":"address","internalType":"address"},{"name":"treasuryWallet","type":"address","internalType":"address"},{"name":"synapseMint","type":"address","internalType":"address"},{"name":"usdcMint","type":"address","internalType":"address"},{"name":"minLabStake","type":"uint256","internalType":"uint256"}]}],"outputs":[],"stateMutability":"nonpayable"},{"type":"function","name":"initialized","inputs":[],"outputs":[{"name":"","type":"bool","internalType":"bool"}],"stateMutability":"view"},{"type":"function","name":"ipNftContract","inputs":[],"outputs":[{"name":"","type":"address","internalType":"contract SynapseIPNFT"}],"stateMutability":"view"},{"type":"function","name":"ipnfts","inputs":[{"name":"","type":"bytes32","internalType":"bytes32"}],"outputs":[{"name":"mintAddress","type":"address","internalType":"address"},{"name":"hypothesis","type":"bytes32","internalType":"bytes32"},{"name":"owner","type":"address","internalType":"address"},{"name":"title","type":"string","internalType":"string"},{"name":"domain","type":"uint8","internalType":"uint8"},{"name":"gradeAtMint","type":"uint8","internalType":"uint8"},{"name":"commitHash","type":"bytes32","internalType":"bytes32"},{"name":"royaltyBps","type":"uint16","internalType":"uint16"},{"name":"metadataUri","type":"string","internalType":"string"},{"name":"burnAmount","type":"uint256","internalType":"uint256"},{"name":"createdAt","type":"uint256","internalType":"uint256"}],"stateMutability":"view"},{"type":"function","name":"labKey","inputs":[{"name":"operator","type":"address","internalType":"address"},{"name":"_labId","type":"bytes8","internalType":"bytes8"}],"outputs":[{"name":"","type":"bytes32","internalType":"bytes32"}],"stateMutability":"pure"},{"type":"function","name":"labs","inputs":[{"name":"","type":"bytes32","internalType":"bytes32"}],"outputs":[{"name":"name","type":"string","internalType":"string"},{"name":"country","type":"bytes4","internalType":"bytes4"},{"name":"kind","type":"uint8","internalType":"uint8"},{"name":"operatorWallet","type":"address","internalType":"address"},{"name":"stakedSynapse","type":"uint256","internalType":"uint256"},{"name":"completedExperiments","type":"uint256","internalType":"uint256"},{"name":"status","type":"uint8","internalType":"uint8"},{"name":"nftMintAddress","type":"address","internalType":"address"},{"name":"labId","type":"bytes8","internalType":"bytes8"},{"name":"createdAt","type":"uint256","internalType":"uint256"}],"stateMutability":"view"},{"type":"function","name":"mintIpnft","inputs":[{"name":"hypKey","type":"bytes32","internalType":"bytes32"},{"name":"params","type":"tuple","internalType":"struct MintIpnftParams","components":[{"name":"title","type":"string","internalType":"string"},{"name":"royaltyBps","type":"uint16","internalType":"uint16"},{"name":"metadataUri","type":"string","internalType":"string"}]}],"outputs":[],"stateMutability":"nonpayable"},{"type":"function","name":"registerLab","inputs":[{"name":"params","type":"tuple","internalType":"struct RegisterLabParams","components":[{"name":"labId","type":"bytes8","internalType":"bytes8"},{"name":"name","type":"string","internalType":"string"},{"name":"country","type":"bytes4","internalType":"bytes4"},{"name":"kind","type":"uint8","internalType":"uint8"},{"name":"nftMintAddress","type":"address","internalType":"address"}]}],"outputs":[],"stateMutability":"nonpayable"},{"type":"function","name":"releaseMilestoneFunds","inputs":[{"name":"cKey","type":"bytes32","internalType":"bytes32"},{"name":"milestoneIndex","type":"uint8","internalType":"uint8"}],"outputs":[],"stateMutability":"nonpayable"},{"type":"function","name":"requestUnstake","inputs":[{"name":"amount","type":"uint256","internalType":"uint256"}],"outputs":[],"stateMutability":"nonpayable"},{"type":"function","name":"revealHypothesis","inputs":[{"name":"params","type":"tuple","internalType":"struct RevealHypothesisParams","components":[{"name":"shortId","type":"bytes8","internalType":"bytes8"},{"name":"salt","type":"bytes","internalType":"bytes"},{"name":"plaintext","type":"string","internalType":"string"}]}],"outputs":[],"stateMutability":"nonpayable"},{"type":"function","name":"routeDataQueryRevenue","inputs":[{"name":"contributor","type":"address","internalType":"address"},{"name":"totalAmount","type":"uint256","internalType":"uint256"}],"outputs":[],"stateMutability":"nonpayable"},{"type":"function","name":"routeInferenceRevenue","inputs":[{"name":"operator","type":"address","internalType":"address"},{"name":"totalAmount","type":"uint256","internalType":"uint256"}],"outputs":[],"stateMutability":"nonpayable"},{"type":"function","name":"setHypothesisGrade","inputs":[{"name":"hypKey","type":"bytes32","internalType":"bytes32"},{"name":"grade","type":"uint8","internalType":"uint8"}],"outputs":[],"stateMutability":"nonpayable"},{"type":"function","name":"setIpNftContract","inputs":[{"name":"_ipNft","type":"address","internalType":"address"}],"outputs":[],"stateMutability":"nonpayable"},{"type":"function","name":"setPopsClearance","inputs":[{"name":"hypKey","type":"bytes32","internalType":"bytes32"},{"name":"cleared","type":"bool","internalType":"bool"}],"outputs":[],"stateMutability":"nonpayable"},{"type":"function","name":"slashOperator","inputs":[{"name":"operator","type":"address","internalType":"address"},{"name":"amount","type":"uint256","internalType":"uint256"}],"outputs":[],"stateMutability":"nonpayable"},{"type":"function","name":"stakeRecords","inputs":[{"name":"","type":"address","internalType":"address"}],"outputs":[{"name":"operator","type":"address","internalType":"address"},{"name":"stakedAmount","type":"uint256","internalType":"uint256"},{"name":"lastUnstakeRequest","type":"uint256","internalType":"uint256"},{"name":"unstakeRequestAmount","type":"uint256","internalType":"uint256"},{"name":"slashCount","type":"uint256","internalType":"uint256"},{"name":"createdAt","type":"uint256","internalType":"uint256"}],"stateMutability":"view"},{"type":"function","name":"stakeSynapse","inputs":[{"name":"amount","type":"uint256","internalType":"uint256"}],"outputs":[],"stateMutability":"nonpayable"},{"type":"function","name":"submitExperimentResult","inputs":[{"name":"bKey","type":"bytes32","internalType":"bytes32"},{"name":"resultHash","type":"bytes32","internalType":"bytes32"}],"outputs":[],"stateMutability":"nonpayable"},{"type":"function","name":"totalStaked","inputs":[],"outputs":[{"name":"","type":"uint256","internalType":"uint256"}],"stateMutability":"view"},{"type":"function","name":"verifyMilestone","inputs":[{"name":"cKey","type":"bytes32","internalType":"bytes32"},{"name":"milestoneIndex","type":"uint8","internalType":"uint8"},{"name":"evidenceSig","type":"bytes","internalType":"bytes"}],"outputs":[],"stateMutability":"nonpayable"},{"type":"function","name":"withdrawUnstake","inputs":[],"outputs":[],"stateMutability":"nonpayable"},{"type":"event","name":"EvtBookingCancelled","inputs":[{"name":"bookingKey","type":"bytes32","indexed":true,"internalType":"bytes32"}],"anonymous":false},{"type":"event","name":"EvtCampaignCreated","inputs":[{"name":"campaignKey","type":"bytes32","indexed":true,"internalType":"bytes32"},{"name":"leadWallet","type":"address","indexed":true,"internalType":"address"},{"name":"targetUsdc","type":"uint256","indexed":false,"internalType":"uint256"},{"name":"domain","type":"uint8","indexed":false,"internalType":"uint8"}],"anonymous":false},{"type":"event","name":"EvtCampaignFunded","inputs":[{"name":"campaignKey","type":"bytes32","indexed":true,"internalType":"bytes32"},{"name":"funder","type":"address","indexed":true,"internalType":"address"},{"name":"amountUsdc","type":"uint256","indexed":false,"internalType":"uint256"},{"name":"totalRaised","type":"uint256","indexed":false,"internalType":"uint256"}],"anonymous":false},{"type":"event","name":"EvtDataQueryRevenueRouted","inputs":[{"name":"contributor","type":"address","indexed":true,"internalType":"address"},{"name":"contributorAmount","type":"uint256","indexed":false,"internalType":"uint256"},{"name":"treasuryAmount","type":"uint256","indexed":false,"internalType":"uint256"}],"anonymous":false},{"type":"event","name":"EvtExperimentResult","inputs":[{"name":"bookingKey","type":"bytes32","indexed":true,"internalType":"bytes32"},{"name":"labKey","type":"bytes32","indexed":true,"internalType":"bytes32"},{"name":"resultHash","type":"bytes32","indexed":false,"internalType":"bytes32"}],"anonymous":false},{"type":"event","name":"EvtHypothesisCommitted","inputs":[{"name":"hypothesisKey","type":"bytes32","indexed":true,"internalType":"bytes32"},{"name":"author","type":"address","indexed":true,"internalType":"address"},{"name":"domain","type":"uint8","indexed":false,"internalType":"uint8"},{"name":"gradeTarget","type":"uint8","indexed":false,"internalType":"uint8"},{"name":"saltedHash","type":"bytes32","indexed":false,"internalType":"bytes32"},{"name":"blockNumber","type":"uint256","indexed":false,"internalType":"uint256"}],"anonymous":false},{"type":"event","name":"EvtHypothesisGraded","inputs":[{"name":"hypothesisKey","type":"bytes32","indexed":true,"internalType":"bytes32"},{"name":"gradeActual","type":"uint8","indexed":false,"internalType":"uint8"}],"anonymous":false},{"type":"event","name":"EvtHypothesisRevealed","inputs":[{"name":"hypothesisKey","type":"bytes32","indexed":true,"internalType":"bytes32"},{"name":"author","type":"address","indexed":true,"internalType":"address"},{"name":"domain","type":"uint8","indexed":false,"internalType":"uint8"},{"name":"revealedAt","type":"uint256","indexed":false,"internalType":"uint256"}],"anonymous":false},{"type":"event","name":"EvtInferenceRevenueRouted","inputs":[{"name":"operator","type":"address","indexed":true,"internalType":"address"},{"name":"operatorAmount","type":"uint256","indexed":false,"internalType":"uint256"},{"name":"treasuryAmount","type":"uint256","indexed":false,"internalType":"uint256"}],"anonymous":false},{"type":"event","name":"EvtIpnftMinted","inputs":[{"name":"hypothesisKey","type":"bytes32","indexed":true,"internalType":"bytes32"},{"name":"nftContract","type":"address","indexed":true,"internalType":"address"},{"name":"owner","type":"address","indexed":true,"internalType":"address"},{"name":"domain","type":"uint8","indexed":false,"internalType":"uint8"},{"name":"gradeAtMint","type":"uint8","indexed":false,"internalType":"uint8"},{"name":"royaltyBps","type":"uint16","indexed":false,"internalType":"uint16"}],"anonymous":false},{"type":"event","name":"EvtLabBooked","inputs":[{"name":"bookingKey","type":"bytes32","indexed":true,"internalType":"bytes32"},{"name":"labKey","type":"bytes32","indexed":true,"internalType":"bytes32"},{"name":"caller","type":"address","indexed":true,"internalType":"address"},{"name":"slotStart","type":"int256","indexed":false,"internalType":"int256"},{"name":"slotEnd","type":"int256","indexed":false,"internalType":"int256"},{"name":"costUsdc","type":"uint256","indexed":false,"internalType":"uint256"}],"anonymous":false},{"type":"event","name":"EvtLabRegistered","inputs":[{"name":"labKey","type":"bytes32","indexed":true,"internalType":"bytes32"},{"name":"operator","type":"address","indexed":true,"internalType":"address"},{"name":"name","type":"string","indexed":false,"internalType":"string"}],"anonymous":false},{"type":"event","name":"EvtMilestoneReleased","inputs":[{"name":"campaignKey","type":"bytes32","indexed":true,"internalType":"bytes32"},{"name":"milestoneIndex","type":"uint8","indexed":false,"internalType":"uint8"},{"name":"amountUsdc","type":"uint256","indexed":false,"internalType":"uint256"}],"anonymous":false},{"type":"event","name":"EvtMilestoneVerified","inputs":[{"name":"campaignKey","type":"bytes32","indexed":true,"internalType":"bytes32"},{"name":"milestoneIndex","type":"uint8","indexed":false,"internalType":"uint8"}],"anonymous":false},{"type":"event","name":"EvtOperatorSlashed","inputs":[{"name":"operator","type":"address","indexed":true,"internalType":"address"},{"name":"slashAmount","type":"uint256","indexed":false,"internalType":"uint256"},{"name":"remainingStake","type":"uint256","indexed":false,"internalType":"uint256"}],"anonymous":false},{"type":"event","name":"EvtPopsClearanceSet","inputs":[{"name":"hypothesisKey","type":"bytes32","indexed":true,"internalType":"bytes32"},{"name":"cleared","type":"bool","indexed":false,"internalType":"bool"}],"anonymous":false},{"type":"event","name":"EvtProtocolInitialized","inputs":[{"name":"config","type":"address","indexed":true,"internalType":"address"},{"name":"authority","type":"address","indexed":true,"internalType":"address"}],"anonymous":false},{"type":"event","name":"EvtStaked","inputs":[{"name":"operator","type":"address","indexed":true,"internalType":"address"},{"name":"amount","type":"uint256","indexed":false,"internalType":"uint256"},{"name":"newTotal","type":"uint256","indexed":false,"internalType":"uint256"}],"anonymous":false},{"type":"event","name":"EvtUnstakeRequested","inputs":[{"name":"operator","type":"address","indexed":true,"internalType":"address"},{"name":"amount","type":"uint256","indexed":false,"internalType":"uint256"},{"name":"availableAt","type":"uint256","indexed":false,"internalType":"uint256"}],"anonymous":false},{"type":"event","name":"EvtUnstakeWithdrawn","inputs":[{"name":"operator","type":"address","indexed":true,"internalType":"address"},{"name":"amount","type":"uint256","indexed":false,"internalType":"uint256"}],"anonymous":false},{"type":"error","name":"AlreadyInitialized","inputs":[]},{"type":"error","name":"BookingNotPending","inputs":[]},{"type":"error","name":"CampaignNotActive","inputs":[]},{"type":"error","name":"CooldownNotElapsed","inputs":[]},{"type":"error","name":"Forbidden","inputs":[]},{"type":"error","name":"GradeInsufficient","inputs":[]},{"type":"error","name":"HashMismatch","inputs":[]},{"type":"error","name":"HypothesisNotCommitted","inputs":[]},{"type":"error","name":"HypothesisNotRevealed","inputs":[]},{"type":"error","name":"HypothesisNotVerified","inputs":[]},{"type":"error","name":"InsufficientStake","inputs":[]},{"type":"error","name":"InsufficientSynapse","inputs":[]},{"type":"error","name":"InvalidMilestoneIndex","inputs":[]},{"type":"error","name":"InvalidSlotTimes","inputs":[]},{"type":"error","name":"MilestoneNotPending","inputs":[]},{"type":"error","name":"MilestoneNotVerified","inputs":[]},{"type":"error","name":"NoPendingUnstake","inputs":[]},{"type":"error","name":"PopsShieldFlagged","inputs":[]},{"type":"error","name":"PopsShieldPending","inputs":[]},{"type":"error","name":"ReentrancyGuardReentrantCall","inputs":[]},{"type":"error","name":"SafeERC20FailedOperation","inputs":[{"name":"token","type":"address","internalType":"address"}]},{"type":"error","name":"SlotUnavailable","inputs":[]},{"type":"error","name":"TooManyMilestones","inputs":[]},{"type":"error","name":"Unauthorized","inputs":[]}],"bytecode":{"object":"0x608060405234801561000f575f80fd5b5060017f9b779b17422d0df92223018b32b4d1fa46e071723d6817e2486d003becc55f00556147eb806100415f395ff3fe608060405234801561000f575f80fd5b506004361061024a575f3560e01c8063817b1cd211610140578063b0024e0d116100bf578063c6a5554a11610084578063c6a5554a14610a3c578063cabe045214610a4f578063cb125ff014610a6f578063cfbccbd214610a82578063d30f1bb114610490578063eae605d714610a95575f80fd5b8063b0024e0d146107d6578063b2c0e4c6146107ff578063bbacc1871461081e578063bc2fcd4b146108df578063bc94f7f814610942575f80fd5b80639d0af4aa116101055780639d0af4aa146106ef578063a22e0a4214610702578063a3c44df01461072d578063a9e87bdb14610740578063afd361fa14610753575f80fd5b8063817b1cd21461069a57806388f9dba2146106a35780638df85847146106b657806390f0e7ef146106c95780639683eac2146106dc575f80fd5b80633ba8a73a116101cc5780635ea27459116101915780635ea27459146104905780636e648537146104a3578063737e4b6e146104c357806379502c55146104d65780637f64d1c714610555575f80fd5b80633ba8a73a146103205780633d10394b1461034a578063507a8c6b1461036a578063576e081c1461037d578063577ee97b1461047d575f80fd5b8063230957211161021257806323095721146102b357806323a763dd146102c65780632ac1dc0f146102d95780632de8b5dd146102fa5780633623b6d31461030d575f80fd5b806301d2700a1461024e57806302ffd5041461025857806303a32be71461026b5780630ac1618b1461027e578063158ef93e14610291575b5f80fd5b610256610aa8565b005b6102566102663660046139e3565b610be4565b610256610279366004613a2a565b610cae565b61025661028c366004613a54565b610d81565b60075461029e9060ff1681565b60405190151581526020015b60405180910390f35b6102566102c1366004613a54565b610e20565b6102566102d4366004613a6b565b610ebb565b6102ec6102e7366004613aae565b61124d565b6040519081526020016102aa565b610256610308366004613ae6565b611280565b61025661031b366004613b08565b611615565b61033361032e366004613a54565b611670565b6040516102aa9b9a99989796959493929190613b6b565b61035d610358366004613a54565b6117eb565b6040516102aa9190613bf2565b610256610378366004613cd3565b6119fa565b61040561038b366004613a54565b600a6020525f9081526040902080546001820154600283015460038401546004850154600586015460068701546007909701546001600160a01b03871697600160a01b880460c01b9760ff600160e01b8204811698600160e81b8304821698600160f01b909304821697909692821695909492939116918c565b604080516001600160a01b03909d168d526001600160c01b0319909b1660208d015260ff998a169a8c019a909a5296881660608b015294871660808a015260a089019390935290851660c088015260e087015261010086015291909116610120840152610140830152610160820152610180016102aa565b61025661048b366004613a2a565b611cd7565b6102ec61049e366004613d24565b611ec2565b6104b66104b1366004613a54565b611ed6565b6040516102aa9190613d4c565b6102566104d1366004613e1f565b612070565b5f5460015460025460035460045460055460065461050b966001600160a01b0390811696811695811694811693811692169087565b604080516001600160a01b03988916815296881660208801529487169486019490945291851660608501528416608084015290921660a082015260c081019190915260e0016102aa565b61068d610563366004613a54565b60408051610180810182525f80825260208201819052918101829052606081018290526080810182905260a0810182905260c0810182905260e08101829052610100810182905261012081018290526101408101829052610160810191909152505f908152600a602090815260409182902082516101808101845281546001600160a01b0381168252600160a01b810460c090811b6001600160c01b03191694830194909452600160e01b810460ff90811695830195909552600160e81b810485166060830152600160f01b900484166080820152600182015460a08201526002820154841692810192909252600381015460e083015260048101546101008301526005810154909216610120820152600682015461014082015260079091015461016082015290565b6040516102aa9190613e3f565b6102ec60085481565b6102566106b1366004613e1f565b612178565b6102566106c4366004613f1b565b612277565b6102566106d7366004613cd3565b6127cb565b6102566106ea366004613a54565b612b26565b6102566106fd366004613f5f565b612cb3565b600b54610715906001600160a01b031681565b6040516001600160a01b0390911681526020016102aa565b61025661073b366004613fdf565b612dd7565b61025661074e366004614007565b612ea7565b61079f610761366004613b08565b60096020525f90815260409020805460018201546002830154600384015460048501546005909501546001600160a01b039094169492939192909186565b604080516001600160a01b0390971687526020870195909552938501929092526060840152608083015260a082015260c0016102aa565b6107e96107e4366004613a54565b613007565b6040516102aa9a99989796959493929190614039565b6102ec61080d366004613a54565b60106020525f908152604090205481565b61088a61082c366004613a54565b600e6020525f9081526040902080546001820154600283015460038401546004850154600586015460068701546007880154600889015460099099015497986001600160a01b0390971697959694959394929360ff9092169290918a565b604080519a8b526001600160a01b0390991660208b0152978901969096526060880194909452608087019290925260a086015260ff1660c085015260e0840152610100830152610120820152610140016102aa565b6108f26108ed366004613b08565b6130fb565b6040516102aa919081516001600160a01b031681526020808301519082015260408083015190820152606080830151908201526080808301519082015260a0918201519181019190915260c00190565b610a2f610950366004613a54565b60408051610140810182525f80825260208201819052918101829052606081018290526080810182905260a0810182905260c0810182905260e081018290526101008101829052610120810191909152505f908152600e60209081526040918290208251610140810184528154815260018201546001600160a01b0316928101929092526002810154928201929092526003820154606082015260048201546080820152600582015460a0820152600682015460ff1660c0820152600782015460e0820152600882015461010082015260099091015461012082015290565b6040516102aa91906140ba565b610256610a4a366004613fdf565b61319b565b610a62610a5d366004613a54565b6132cf565b6040516102aa91906141f5565b6102ec610a7d366004613e1f565b613604565b610256610a90366004613fdf565b61361f565b610256610aa33660046142af565b6136ef565b610ab0613854565b335f9081526009602052604081206003810154909103610ae357604051631509a84360e11b815260040160405180910390fd5b62093a808160020154610af691906142d3565b421015610b1657604051635115ba2f60e11b815260040160405180910390fd5b60038101546001820154811115610b40576040516378de4a6960e11b815260040160405180910390fd5b80826001015f828254610b5391906142e6565b90915550505f600383018190556002830181905560088054839290610b799084906142e6565b9091555050600454610b95906001600160a01b0316338361386f565b60405181815233907fb06c589e042e3b62b6ab86857ae9e65f398b74aef5a2a8ed64f1122a8b0d12b49060200160405180910390a25050610be260015f8051602061479683398151915255565b565b6002546001600160a01b03163314801590610c0957505f546001600160a01b03163314155b15610c26576040516282b42960e81b815260040160405180910390fd5b5f828152600a6020526040902081610c3f576002610c42565b60015b60058201805460ff191660ff9290921691909117905581610c6d5760028101805460ff191660041790555b827f7cf7b29ab7874b1a997b49e48cee65fd2578fd27d833094d9379d5a9bd499c7883604051610ca1911515815260200190565b60405180910390a2505050565b6001546001600160a01b03163314801590610cd357505f546001600160a01b03163314155b15610cf0576040516282b42960e81b815260040160405180910390fd5b5f828152600a6020526040902060028082015460ff1614610d2457604051638bda343f60e01b815260040160405180910390fd5b805460ff8316600160f01b810260ff60f01b1990921691909117825560028201805460ff1916600317905560405190815283907f594261ee9b6498a7240d95a2292df3942b6bd49d4085b7987daaa7e2de9bddb390602001610ca1565b5f818152600e6020526040902060018101546001600160a01b03163314610dbb57604051631dd2188d60e31b815260040160405180910390fd5b600681015460ff16600114610de357604051630180583f60e31b815260040160405180910390fd5b60068101805460ff1916600417905560405182907f771a201e4cae38cf59e5375d519c80c2fab795de444b2bb2f38a7ebbfe48b229905f90a25050565b335f908152600960205260409020811580610e3e5750818160010154105b15610e5c576040516378de4a6960e11b815260040160405180910390fd5b42600282018190556003820183905533907feb45a5b0dfb77eba5a47a4863ae787cff55c40f7d34cc7e2727c130f72c279d2908490610e9f9062093a80906142d3565b6040805192835260208301919091520160405180910390a25050565b610ec3613854565b5f33610ed260208401846142f9565b604051602001610ee3929190614312565b60408051601f1981840301815291815281516020928301205f818152600a9093529120549091506001600160a01b031615610f3157604051631dd2188d60e31b815260040160405180910390fd5b600480546040516370a0823160e01b815233928101929092526001600160a01b031690629896809082906370a0823190602401602060405180830381865afa158015610f7f573d5f803e3d5ffd5b505050506040513d601f19601f82011682018060405250810190610fa3919061433e565b1015610fc257604051630f61ffef60e21b815260040160405180910390fd5b6004805460405163079cc67960e41b815233928101929092526298968060248301526001600160a01b0316906379cc6790906044015f604051808303815f87803b15801561100e575f80fd5b505af1158015611020573d5f803e3d5ffd5b5050604080516101808101909152338152915050602080820190611046908601866142f9565b6001600160c01b03191681526020018460200160208101906110689190614355565b60ff1681526020016110806060860160408701614355565b60ff908116825260208083018290526060808801356040808601919091525f8286018190524360808088019190915260a080880183905260c08089018490526298968060e0808b0191909152426101009a8b01528c8552600a8852938590208a5181548c8a01518d890151998e0151968e01518c16600160f01b0260ff60f01b19978d16600160e81b0260ff60e81b199b8e16600160e01b029b909b1661ffff60e01b1992871c600160a01b026001600160e01b03199094166001600160a01b0390951694909417929092171691909117979097179390931695909517825588015160018201559287015160028401805491871660ff1992831617905590870151600384015594860151600483015561012086015160058301805491909516951694909417909255610140840151600683015561016090930151600790910155339184917f85b9469f9f856e6245f590dbffd81060e905d263f689b2aade7fe252b43cafec916111f4918801908801614355565b6112046060880160408901614355565b6040805160ff938416815291909216602082015260608881013582840152439082015290519081900360800190a3505061124a60015f8051602061479683398151915255565b50565b5f828260405160200161126192919061436e565b6040516020818303038152906040528051906020012090505b92915050565b611288613854565b5f828152600d602052604090206001810154600160281b90046001600160a01b03166112c757604051631dd2188d60e31b815260040160405180910390fd5b81356020830135136112ec57604051632aefd55f60e21b815260040160405180910390fd5b6040515f9061130b908590853590602001918252602082015260400190565b60408051601f1981840301815291815281516020928301205f818152600e9093529120600101549091506001600160a01b03161561135c57604051632eb5323b60e11b815260040160405180910390fd5b600480546040516370a0823160e01b815233928101929092526001600160a01b03169060608501359082906370a0823190602401602060405180830381865afa1580156113ab573d5f803e3d5ffd5b505050506040513d601f19601f820116820180604052508101906113cf919061433e565b10156113ee57604051630f61ffef60e21b815260040160405180910390fd5b600183015460055461141a916001600160a01b03918216913391600160281b90041660408801356138a9565b6004805460405163079cc67960e41b81523392810192909252606086013560248301526001600160a01b0316906379cc6790906044015f604051808303815f87803b158015611467575f80fd5b505af1158015611479573d5f803e3d5ffd5b50505050604051806101400160405280868152602001336001600160a01b03168152602001855f01358152602001856020013581526020018560400135815260200185606001358152602001600160ff168152602001856080013581526020015f801b815260200142815250600e5f8481526020019081526020015f205f820151815f01556020820151816001015f6101000a8154816001600160a01b0302191690836001600160a01b0316021790555060408201518160020155606082015181600301556080820151816004015560a0820151816005015560c0820151816006015f6101000a81548160ff021916908360ff16021790555060e0820151816007015561010082015181600801556101208201518160090155905050336001600160a01b031685837fe64fadce64a0178777bcbc0832ec6aadbd25afd307f26208541cb03f7f8c1d48875f0135886020013589604001356040516115f0939291909283526020830191909152604082015260600190565b60405180910390a450505061161160015f8051602061479683398151915255565b5050565b60075460ff16801561163157505f546001600160a01b03163314155b1561164e576040516282b42960e81b815260040160405180910390fd5b600b80546001600160a01b0319166001600160a01b0392909216919091179055565b600c6020525f908152604090208054600182015460028301546003840180546001600160a01b0394851695939490921692916116ab9061439a565b80601f01602080910402602001604051908101604052809291908181526020018280546116d79061439a565b80156117225780601f106116f957610100808354040283529160200191611722565b820191905f5260205f20905b81548152906001019060200180831161170557829003601f168201915b505050600484015460058501546006860154600787018054969760ff8086169861010090960416965092945061ffff9091169261175e9061439a565b80601f016020809104026020016040519081016040528092919081815260200182805461178a9061439a565b80156117d55780601f106117ac576101008083540402835291602001916117d5565b820191905f5260205f20905b8154815290600101906020018083116117b857829003601f168201915b505050505090806008015490806009015490508b565b6040805161016080820183525f808352602080840182905283850182905260608085018190526080850183905260a0850183905260c0850183905260e08501839052610100850181905261012085018390526101408501839052868352600c8252918590208551938401865280546001600160a01b03908116855260018201549285019290925260028101549091169483019490945260038401805493949293918401916118989061439a565b80601f01602080910402602001604051908101604052809291908181526020018280546118c49061439a565b801561190f5780601f106118e65761010080835404028352916020019161190f565b820191905f5260205f20905b8154815290600101906020018083116118f257829003601f168201915b5050509183525050600482015460ff808216602084015261010090910416604082015260058201546060820152600682015461ffff16608082015260078201805460a09092019161195f9061439a565b80601f016020809104026020016040519081016040528092919081815260200182805461198b9061439a565b80156119d65780601f106119ad576101008083540402835291602001916119d6565b820191905f5260205f20905b8154815290600101906020018083116119b957829003601f168201915b50505050508152602001600882015481526020016009820154815250509050919050565b335f90815260096020526040902060065460018201541015611a2f576040516378de4a6960e11b815260040160405180910390fd5b5f33611a3e60208501856142f9565b604051602001611a4f929190614312565b60408051601f1981840301815291815281516020928301205f818152600d909352912060010154909150600160281b90046001600160a01b031615611aa757604051631dd2188d60e31b815260040160405180910390fd5b60408051610140810190915280611ac160208601866143cc565b8080601f0160208091040260200160405190810160405280939291908181526020018383808284375f92019190915250505090825250602001611b0a6060860160408701614416565b6001600160e01b0319168152602001611b296080860160608701614355565b60ff168152602001336001600160a01b03168152602001836001015481526020015f81526020015f60ff168152602001846080016020810190611b6c9190613b08565b6001600160a01b03168152602090810190611b89908601866142f9565b6001600160c01b0319168152426020918201525f838152600d9091526040902081518190611bb7908261449c565b506020828101516001830180546040860151606087015160e094851c64ffffffffff199093169290921764010000000060ff928316021765010000000000600160c81b031916600160281b6001600160a01b0393841602179092556080860151600286015560a0860151600386015560c08087015160048701805495890151610100808b0151939096166001600160a81b031990971696909617959093169093029390931767ffffffffffffffff60a81b1916600160a81b9290931c9190910291909117905561012090920151600590910155339082907f40972e7d5e020e73667dfd4348df033f541d7166c0d837ebb8fa9968b036311590611cbc908701876143cc565b604051611cca929190614584565b60405180910390a3505050565b611cdf613854565b5f828152600f60205260409020600281015461010090046001600160a01b03163314801590611d1857505f546001600160a01b03163314155b15611d3657604051631dd2188d60e31b815260040160405180910390fd5b600681015460ff831610611d5d5760405163fdf4d87360e01b815260040160405180910390fd5b5f816006018360ff1681548110611d7657611d76614597565b5f9182526020909120600260059092020190810154909150610100900460ff16600114611db65760405163b0e33fe960e01b815260040160405180910390fd5b60018101545f85815260106020526040902054811115611e135760405162461bcd60e51b8152602060048201526013602482015272115cd8dc9bddc81a5b9cdd59999a58da595b9d606a1b60448201526064015b60405180910390fd5b5f8581526010602052604081208054839290611e309084906142e6565b90915550506002828101805461ff001916610200179055830154600554611e6a916001600160a01b0391821691610100909104168361386f565b6040805160ff861681526020810183905286917f491057b2cda81d16c0873d3106988e8d90c3918efe627456e8856c3ee60a7a0891015b60405180910390a250505061161160015f8051602061479683398151915255565b5f8282604051602001611261929190614312565b604080516101408101825260608082525f6020830181905292820183905281018290526080810182905260a0810182905260c0810182905260e0810182905261010081018290526101208101919091525f828152600d60205260409081902081516101408101909252805482908290611f4e9061439a565b80601f0160208091040260200160405190810160405280929190818152602001828054611f7a9061439a565b8015611fc55780601f10611f9c57610100808354040283529160200191611fc5565b820191905f5260205f20905b815481529060010190602001808311611fa857829003601f168201915b5050509183525050600182015460e081811b6001600160e01b0319166020840152640100000000820460ff9081166040850152600160281b9092046001600160a01b03908116606085015260028501546080850152600385015460a0850152600485015492831660c08086019190915261010080850490921692850192909252600160a81b909204901b6001600160c01b031916908201526005909101546101209091015292915050565b612078613854565b5f828152600f60205260409020600581015460ff16156120ab5760405163219a945b60e11b815260040160405180910390fd5b6005546120c3906001600160a01b03163330856138a9565b5f83815260106020526040812080548492906120e09084906142d3565b9250508190555081816004015f8282546120fa91906142d3565b9091555050600381015460048201541061211e5760058101805460ff191660011790555b6004810154604080518481526020810192909252339185917f6a1337a2724c7b214476d80a12e0bd2eb3711710349b257c188574a10bda874a910160405180910390a35061161160015f8051602061479683398151915255565b5f828152600e6020908152604080832080548452600d9092529091206001810154600160281b90046001600160a01b031633146121c857604051631dd2188d60e31b815260040160405180910390fd5b600682015460ff166002148015906121e85750600682015460ff16600114155b1561220657604051630180583f60e31b815260040160405180910390fd5b6008820183905560068201805460ff1916600390811790915581018054600191905f906122349084906142d3565b9091555050815460405184815285907f8de7c6e1df2838d3a4ccb7cbc5cdc8c38abefdeedb6d4881e464d4c09787b5fa906020015b60405180910390a350505050565b61227f613854565b5f828152600a6020526040902080546001600160a01b031633146122b657604051631dd2188d60e31b815260040160405180910390fd5b600281015460ff166003146122de5760405163da4fa8c560e01b815260040160405180910390fd5b8054600160f01b900460ff161580159061230457508054600160f01b900460ff16600114155b15612322576040516345ca03bb60e01b815260040160405180910390fd5b600581015460ff1661234657604051624760a760e91b815260040160405180910390fd5b600581015460ff166001190161236f57604051634c3b9aeb60e01b815260040160405180910390fd5b5f838152600c60205260409020600201546001600160a01b0316156123a757604051631dd2188d60e31b815260040160405180910390fd5b600480546040516370a0823160e01b815233928101929092526001600160a01b0316906302faf0809082906370a0823190602401602060405180830381865afa1580156123f6573d5f803e3d5ffd5b505050506040513d601f19601f8201168201806040525081019061241a919061433e565b101561243957604051630f61ffef60e21b815260040160405180910390fd5b6004805460405163079cc67960e41b8152339281019290925263017d784060248301526001600160a01b0316906379cc6790906044015f604051808303815f87803b158015612486575f80fd5b505af1158015612498573d5f803e3d5ffd5b506124b6925050506001600160a01b038216333063017d78406138a9565b63017d784060085f8282546124cb91906142d3565b9091555050600b546001600160a01b03166239a9b833866124ef60408801886143cc565b6124ff60408a0160208b016145ab565b6040518663ffffffff1660e01b815260040161251f9594939291906145cc565b5f604051808303815f87803b158015612536575f80fd5b505af1158015612548573d5f803e3d5ffd5b50506040805161016081018252600b546001600160a01b031681526020810188905233918101919091529150506060810161258385806143cc565b8080601f0160208091040260200160405190810160405280939291908181526020018383808284375f92019190915250505090825250835460ff600160e01b82048116602080850191909152600160f01b9092041660408084019190915260018601546060840152608090920191612600919087019087016145ab565b61ffff16815260200161261660408601866143cc565b8080601f0160208091040260200160405190810160405280939291908181526020018383808284375f92018290525093855250506302faf08060208085019190915242604094850152888352600c815291839020845181546001600160a01b03199081166001600160a01b039283161783559386015160018301559385015160028201805490941694169390931790915550606082015160038201906126bc908261449c565b50608082015160048201805460a085015160ff93841661ffff19928316176101009490911684021790915560c0840151600584015560e084015160068401805490921661ffff909116179055820151600782019061271a908261449c565b50610120820151600882015561014090910151600990910155600b54825433916001600160a01b03169086907fbf63b0fffc109461525f42675fcae782f8f5a1aed9dd126a87078bd0009a8cc29060ff600160e01b8204811691600160f01b90041661278c60408a0160208b016145ab565b6040805160ff948516815293909216602084015261ffff169082015260600160405180910390a4505061161160015f8051602061479683398151915255565b600a6127da6080830183614609565b905011156127fb57604051638a71996560e01b815260040160405180910390fd5b5f3361280a602084018461464f565b60405160200161281b92919061436e565b60408051601f1981840301815291815281516020928301205f818152600f90935291206002015490915061010090046001600160a01b03161561287157604051631dd2188d60e31b815260040160405180910390fd5b5f818152600f602090815260409091209061288e9084018461464f565b81546001600160801b03191660809190911c1781556128b060208401846143cc565b60018301916128c0919083614668565b506128d16060840160408501614355565b60028201805460ff929092166001600160a81b0319909216919091176101003302179055606083013560038201555f6004820181905560058201805460ff191690554260078301555b6129276080850185614609565b9050811015612ad757816006016040518060c0016040528086806080019061294f9190614609565b8581811061295f5761295f614597565b90506020028101906129719190614722565b61297b90806143cc565b8080601f0160208091040260200160405190810160405280939291908181526020018383808284375f920191909152505050908252506020016129c16080880188614609565b858181106129d1576129d1614597565b90506020028101906129e39190614722565b6020908101358252016129f96080880188614609565b85818110612a0957612a09614597565b9050602002810190612a1b9190614722565b612a2c906060810190604001614355565b60ff1681525f6020808301829052604080840183905280518083019091528281526060909301929092528354600181018555938152208151919260050201908190612a77908261449c565b50602082015160018201556040820151600282018054606085015160ff9081166101000261ffff199092169316929092179190911790556080820151600382015560a08201516004820190612acc908261449c565b50505060010161291a565b5033827f623fb711e40a71300435aea951bd02b657b25bf295e6e5d69f5cf5602a67637060608601803590612b0f9060408901614355565b6040805192835260ff909116602083015201611cca565b612b2e613854565b805f03612b4e57604051630f61ffef60e21b815260040160405180910390fd5b600480546040516370a0823160e01b815233928101929092526001600160a01b031690829082906370a0823190602401602060405180830381865afa158015612b99573d5f803e3d5ffd5b505050506040513d601f19601f82011682018060405250810190612bbd919061433e565b1015612bdc57604051630f61ffef60e21b815260040160405180910390fd5b612bf16001600160a01b0382163330856138a9565b335f90815260096020526040902080546001600160a01b0316612c255780546001600160a01b031916331781554260058201555b82816001015f828254612c3891906142d3565b925050819055508260085f828254612c5091906142d3565b9091555050600181015460405133917fad5f5a64f075a9fac19a36e9424809b6064a9064f95eb9af709f9a369a60c79191612c9391878252602082015260400190565b60405180910390a2505061124a60015f8051602061479683398151915255565b5f848152600f60205260409020600281015461010090046001600160a01b03163314612cf257604051631dd2188d60e31b815260040160405180910390fd5b600681015460ff851610612d195760405163fdf4d87360e01b815260040160405180910390fd5b5f816006018560ff1681548110612d3257612d32614597565b5f9182526020909120600260059092020190810154909150610100900460ff1615612d70576040516323a244ef60e11b815260040160405180910390fd5b60028101805461ff00191661010017905542600382015560048101612d96848683614668565b5060405160ff8616815286907fe597ec9fdaefdbbe6972498bb0265879fae62e66bd307bd8b245b5b4d3d67c039060200160405180910390a2505050505050565b5f546001600160a01b03163314612e00576040516282b42960e81b815260040160405180910390fd5b612e08613854565b5f612710612e18611b5884614740565b612e229190614757565b90505f612e2f82846142e6565b6004549091506001600160a01b0316612e4a813387866138a9565b600354612e66906001600160a01b0383811691339116856138a9565b60408051848152602081018490526001600160a01b038716917f08810b279a43cf3901663643f7a2467226980419cffd9bd5f3ab29bd106e52359101611ea1565b5f33612eb660208401846142f9565b604051602001612ec7929190614312565b60408051601f1981840301815291815281516020928301205f818152600a90935291208054919250906001600160a01b03163314612f1857604051631dd2188d60e31b815260040160405180910390fd5b600281015460ff1615612f3e57604051633117bfc960e11b815260040160405180910390fd5b5f612f4c60208501856143cc565b612f5960408701876143cc565b604051602001612f6c9493929190614776565b60405160208183030381529060405280519060200120905081600101548114612fa857604051633f4d605360e01b815260040160405180910390fd5b6002828101805460ff191690911790554260048301819055825460408051600160e01b90920460ff1682526020820192909252339185917f5977cda3ad9cad94ae99d5b3a7c791be88e97bcb9a9da4bc77c41a74433de9ea9101612269565b600d6020525f90815260409020805481906130219061439a565b80601f016020809104026020016040519081016040528092919081815260200182805461304d9061439a565b80156130985780601f1061306f57610100808354040283529160200191613098565b820191905f5260205f20905b81548152906001019060200180831161307b57829003601f168201915b5050506001840154600285015460038601546004870154600590970154959660e084901b9660ff6401000000008604811697506001600160a01b03600160281b909604861696509394929382169261010083041691600160a81b900460c01b908a565b6131376040518060c001604052805f6001600160a01b031681526020015f81526020015f81526020015f81526020015f81526020015f81525090565b506001600160a01b039081165f90815260096020908152604091829020825160c0810184528154909416845260018101549184019190915260028101549183019190915260038101546060830152600481015460808301526005015460a082015290565b5f546001600160a01b031633146131c4576040516282b42960e81b815260040160405180910390fd5b6131cc613854565b6001600160a01b0382165f908152600960205260408120600181015490919083116131f757826131fd565b81600101545b905080826001015f82825461321291906142e6565b925050819055506001826004015f82825461322d91906142d3565b925050819055508060085f82825461324591906142e6565b9091555050600354600454613267916001600160a01b0391821691168361386f565b836001600160a01b03167f0a48cd33ea339042239839bb1c722476cec74af497d4762102048ab3bce066e08284600101546040516132af929190918252602082015260400190565b60405180910390a2505061161160015f8051602061479683398151915255565b6133396040518061012001604052805f6fffffffffffffffffffffffffffffffff19168152602001606081526020015f60ff1681526020015f6001600160a01b031681526020015f81526020015f81526020015f60ff168152602001606081526020015f81525090565b5f828152600f602090815260409182902082516101208101909352805460801b6001600160801b031916835260018101805491928401916133799061439a565b80601f01602080910402602001604051908101604052809291908181526020018280546133a59061439a565b80156133f05780601f106133c7576101008083540402835291602001916133f0565b820191905f5260205f20905b8154815290600101906020018083116133d357829003601f168201915b5050509183525050600282015460ff8082166020808501919091526101009092046001600160a01b03166040808501919091526003850154606085015260048501546080850152600585015490911660a084015260068401805482518185028101850190935280835260c09094019391929091905f9084015b828210156135eb578382905f5260205f2090600502016040518060c00160405290815f820180546134999061439a565b80601f01602080910402602001604051908101604052809291908181526020018280546134c59061439a565b80156135105780601f106134e757610100808354040283529160200191613510565b820191905f5260205f20905b8154815290600101906020018083116134f357829003601f168201915b505050918352505060018201546020820152600282015460ff80821660408401526101009091041660608201526003820154608082015260048201805460a09092019161355c9061439a565b80601f01602080910402602001604051908101604052809291908181526020018280546135889061439a565b80156135d35780601f106135aa576101008083540402835291602001916135d3565b820191905f5260205f20905b8154815290600101906020018083116135b657829003601f168201915b50505050508152505081526020019060010190613469565b5050505081526020016007820154815250509050919050565b60408051602081018490529081018290525f90606001611261565b5f546001600160a01b03163314613648576040516282b42960e81b815260040160405180910390fd5b613650613854565b5f612710613660611f4084614740565b61366a9190614757565b90505f61367782846142e6565b6004549091506001600160a01b0316613692813387866138a9565b6003546136ae906001600160a01b0383811691339116856138a9565b60408051848152602081018490526001600160a01b038716917fa034f58dc8b84a45963f4050571e0bbfec95e50dca8419a2d4251bec61dce1539101611ea1565b60075460ff16156137125760405162dc149f60e41b815260040160405180910390fd5b6007805460ff191660011790555f80546001600160a01b0319163317905561373d6020820182613b08565b600180546001600160a01b0319166001600160a01b039290921691909117905561376d6040820160208301613b08565b600280546001600160a01b0319166001600160a01b039290921691909117905561379d6060820160408301613b08565b600380546001600160a01b0319166001600160a01b03929092169190911790556137cd6080820160608301613b08565b600480546001600160a01b0319166001600160a01b03929092169190911790556137fd60a0820160808301613b08565b600580546001600160a01b0319166001600160a01b039290921691909117905560a0810135600655604051339030907fa15610f220f35ab3e26d54868a768607390cbfe140b0532b50545c43e3af8e6f905f90a350565b61385c6138e5565b60025f8051602061479683398151915255565b61387c8383836001613914565b6138a457604051635274afe760e01b81526001600160a01b0384166004820152602401611e0a565b505050565b6138b7848484846001613976565b6138df57604051635274afe760e01b81526001600160a01b0385166004820152602401611e0a565b50505050565b5f8051602061479683398151915254600203610be257604051633ee5aeb560e01b815260040160405180910390fd5b60405163a9059cbb60e01b5f8181526001600160a01b038616600452602485905291602083604481808b5af1925060015f5114831661396a57838315161561395e573d5f823e3d81fd5b5f873b113d1516831692505b60405250949350505050565b6040516323b872dd60e01b5f8181526001600160a01b038781166004528616602452604485905291602083606481808c5af1925060015f511483166139d25783831516156139c6573d5f823e3d81fd5b5f883b113d1516831692505b604052505f60605295945050505050565b5f80604083850312156139f4575f80fd5b8235915060208301358015158114613a0a575f80fd5b809150509250929050565b803560ff81168114613a25575f80fd5b919050565b5f8060408385031215613a3b575f80fd5b82359150613a4b60208401613a15565b90509250929050565b5f60208284031215613a64575f80fd5b5035919050565b5f60808284031215613a7b575f80fd5b50919050565b80356001600160a01b0381168114613a25575f80fd5b80356001600160801b031981168114613a25575f80fd5b5f8060408385031215613abf575f80fd5b613ac883613a81565b9150613a4b60208401613a97565b5f60a08284031215613a7b575f80fd5b5f8060c08385031215613af7575f80fd5b82359150613a4b8460208501613ad6565b5f60208284031215613b18575f80fd5b613b2182613a81565b9392505050565b5f81518084525f5b81811015613b4c57602081850181015186830182015201613b30565b505f602082860101526020601f19601f83011685010191505092915050565b6001600160a01b038c81168252602082018c90528a166040820152610160606082018190525f90613b9e8382018c613b28565b905060ff8a16608084015260ff891660a08401528760c084015261ffff871660e0840152828103610100840152613bd58187613b28565b610120840195909552505061014001529998505050505050505050565b60208152613c0c6020820183516001600160a01b03169052565b602082015160408201525f6040830151613c3160608401826001600160a01b03169052565b506060830151610160806080850152613c4e610180850183613b28565b91506080850151613c6460a086018260ff169052565b5060a085015160ff811660c08601525060c085015160e085015260e0850151610100613c958187018361ffff169052565b80870151915050610120601f198685030181870152613cb48483613b28565b9087015161014087810191909152909601519190940152509192915050565b5f60208284031215613ce3575f80fd5b813567ffffffffffffffff811115613cf9575f80fd5b613d0584828501613ad6565b949350505050565b80356001600160c01b031981168114613a25575f80fd5b5f8060408385031215613d35575f80fd5b613d3e83613a81565b9150613a4b60208401613d0d565b602081525f8251610140806020850152613d6a610160850183613b28565b91506020850151613d8760408601826001600160e01b0319169052565b50604085015160ff811660608601525060608501516001600160a01b038116608086015250608085015160a085015260a085015160c085015260c0850151613dd460e086018260ff169052565b5060e0850151610100613df1818701836001600160a01b03169052565b8601519050610120613e0e868201836001600160c01b0319169052565b959095015193019290925250919050565b5f8060408385031215613e30575f80fd5b50508035926020909101359150565b81516001600160a01b0316815261018081016020830151613e6c60208401826001600160c01b0319169052565b506040830151613e81604084018260ff169052565b506060830151613e96606084018260ff169052565b506080830151613eab608084018260ff169052565b5060a083015160a083015260c0830151613eca60c084018260ff169052565b5060e0838101519083015261010080840151908301526101208084015160ff1690830152610140808401519083015261016092830151929091019190915290565b5f60608284031215613a7b575f80fd5b5f8060408385031215613f2c575f80fd5b82359150602083013567ffffffffffffffff811115613f49575f80fd5b613f5585828601613f0b565b9150509250929050565b5f805f8060608587031215613f72575f80fd5b84359350613f8260208601613a15565b9250604085013567ffffffffffffffff80821115613f9e575f80fd5b818701915087601f830112613fb1575f80fd5b813581811115613fbf575f80fd5b886020828501011115613fd0575f80fd5b95989497505060200194505050565b5f8060408385031215613ff0575f80fd5b613ff983613a81565b946020939093013593505050565b5f60208284031215614017575f80fd5b813567ffffffffffffffff81111561402d575f80fd5b613d0584828501613f0b565b5f61014080835261404c8184018e613b28565b6001600160e01b03199c909c166020840152505060ff98891660408201526001600160a01b039788166060820152608081019690965260a08601949094529190951660c08401529390921660e08201526001600160c01b031990921661010083015261012090910152919050565b815181526020808301516101408301916140de908401826001600160a01b03169052565b5060408301516040830152606083015160608301526080830151608083015260a083015160a083015260c083015161411b60c084018260ff169052565b5060e083015160e083015261010080840151818401525061012080840151818401525092915050565b5f82825180855260208086019550808260051b8401018186015f5b848110156141e857601f19868403018952815160c0815181865261418582870182613b28565b838801518789015260408085015160ff90811691890191909152606080860151909116908801526080808501519088015260a0938401518782039488019490945291506141d490508183613b28565b9a86019a945050509083019060010161415f565b5090979650505050505050565b602081526142106020820183516001600160801b0319169052565b5f602083015161012080604085015261422d610140850183613b28565b91506040850151614243606086018260ff169052565b5060608501516001600160a01b038116608086015250608085015160a085015260a085015160c085015260c085015161428160e086018260ff169052565b5060e0850151610100601f19868503018187015261429f8483614144565b9601519190940152509192915050565b5f60c08284031215613a7b575f80fd5b634e487b7160e01b5f52601160045260245ffd5b8082018082111561127a5761127a6142bf565b8181038181111561127a5761127a6142bf565b5f60208284031215614309575f80fd5b613b2182613d0d565b60609290921b6bffffffffffffffffffffffff191682526001600160c01b0319166014820152601c0190565b5f6020828403121561434e575f80fd5b5051919050565b5f60208284031215614365575f80fd5b613b2182613a15565b60609290921b6bffffffffffffffffffffffff191682526001600160801b031916601482015260240190565b600181811c908216806143ae57607f821691505b602082108103613a7b57634e487b7160e01b5f52602260045260245ffd5b5f808335601e198436030181126143e1575f80fd5b83018035915067ffffffffffffffff8211156143fb575f80fd5b60200191503681900382131561440f575f80fd5b9250929050565b5f60208284031215614426575f80fd5b81356001600160e01b031981168114613b21575f80fd5b634e487b7160e01b5f52604160045260245ffd5b601f8211156138a457805f5260205f20601f840160051c810160208510156144765750805b601f840160051c820191505b81811015614495575f8155600101614482565b5050505050565b815167ffffffffffffffff8111156144b6576144b661443d565b6144ca816144c4845461439a565b84614451565b602080601f8311600181146144fd575f84156144e65750858301515b5f19600386901b1c1916600185901b178555614554565b5f85815260208120601f198616915b8281101561452b5788860151825594840194600190910190840161450c565b508582101561454857878501515f19600388901b60f8161c191681555b505060018460011b0185555b505050505050565b81835281816020850137505f828201602090810191909152601f909101601f19169091010190565b602081525f613d0560208301848661455c565b634e487b7160e01b5f52603260045260245ffd5b5f602082840312156145bb575f80fd5b813561ffff81168114613b21575f80fd5b60018060a01b0386168152846020820152608060408201525f6145f360808301858761455c565b905061ffff831660608301529695505050505050565b5f808335601e1984360301811261461e575f80fd5b83018035915067ffffffffffffffff821115614638575f80fd5b6020019150600581901b360382131561440f575f80fd5b5f6020828403121561465f575f80fd5b613b2182613a97565b67ffffffffffffffff8311156146805761468061443d565b6146948361468e835461439a565b83614451565b5f601f8411600181146146c5575f85156146ae5750838201355b5f19600387901b1c1916600186901b178355614495565b5f83815260208120601f198716915b828110156146f457868501358255602094850194600190920191016146d4565b5086821015614710575f1960f88860031b161c19848701351681555b505060018560011b0183555050505050565b5f8235605e19833603018112614736575f80fd5b9190910192915050565b808202811582820484141761127a5761127a6142bf565b5f8261477157634e487b7160e01b5f52601260045260245ffd5b500490565b838582375f8482015f8152838582375f9301928352509094935050505056fe9b779b17422d0df92223018b32b4d1fa46e071723d6817e2486d003becc55f00a26469706673582212204247c85dc8edbc00b1742253f4647bd189e25868943442270f6db6cadcf6011164736f6c63430008180033","linkReferences":{}},"methodIdentifiers":{"bookLab(bytes32,(int256,int256,uint256,uint256,bytes32))":"2de8b5dd","bookingKey(bytes32,int256)":"cb125ff0","bookings(bytes32)":"bbacc187","campaignEscrow(bytes32)":"b2c0e4c6","campaignKey(address,bytes16)":"2ac1dc0f","cancelBooking(bytes32)":"0ac1618b","commitHypothesis((bytes8,uint8,uint8,bytes32))":"23a763dd","config()":"79502c55","createCampaign((bytes16,string,uint8,uint256,(string,uint256,uint8)[]))":"90f0e7ef","fundCampaign(bytes32,uint256)":"737e4b6e","getBooking(bytes32)":"bc94f7f8","getCampaign(bytes32)":"cabe0452","getHypothesis(bytes32)":"7f64d1c7","getIpnft(bytes32)":"3d10394b","getLab(bytes32)":"6e648537","getStakeRecord(address)":"bc2fcd4b","hypotheses(bytes32)":"576e081c","hypothesisKey(address,bytes8)":"5ea27459","initializeProtocol((address,address,address,address,address,uint256))":"eae605d7","initialized()":"158ef93e","ipNftContract()":"a22e0a42","ipnfts(bytes32)":"3ba8a73a","labKey(address,bytes8)":"d30f1bb1","labs(bytes32)":"b0024e0d","mintIpnft(bytes32,(string,uint16,string))":"8df85847","registerLab((bytes8,string,bytes4,uint8,address))":"507a8c6b","releaseMilestoneFunds(bytes32,uint8)":"577ee97b","requestUnstake(uint256)":"23095721","revealHypothesis((bytes8,bytes,string))":"a9e87bdb","routeDataQueryRevenue(address,uint256)":"cfbccbd2","routeInferenceRevenue(address,uint256)":"a3c44df0","setHypothesisGrade(bytes32,uint8)":"03a32be7","setIpNftContract(address)":"3623b6d3","setPopsClearance(bytes32,bool)":"02ffd504","slashOperator(address,uint256)":"c6a5554a","stakeRecords(address)":"afd361fa","stakeSynapse(uint256)":"9683eac2","submitExperimentResult(bytes32,bytes32)":"88f9dba2","totalStaked()":"817b1cd2","verifyMilestone(bytes32,uint8,bytes)":"9d0af4aa","withdrawUnstake()":"01d2700a"},"id":53}